:020000040800F2
:1000000000000120A51F0008A91E0008B51E000859
:10001000BB1E0008C11E0008C71E0008000000002B
:10002000000000000000000000000000CD1E0008DD
:10003000D91E000800000000E51E0008F11E00089F
:10004000ED1F0008ED1F0008ED1F0008ED1F000860
:10005000ED1F0008ED1F0008FD1E0008ED1F000841
:10006000ED1F00080B1F0008191F0008ED1F0008F6
:10007000ED1F0008ED1F0008ED1F0008ED1F000830
:10008000ED1F0008ED1F0008ED1F0008ED1F000820
:10009000ED1F0008ED1F0008ED1F0008ED1F000810
:1000A000ED1F0008ED1F0008ED1F0008ED1F000800
:1000B000ED1F0008ED1F0008ED1F0008ED1F0008F0
:1000C000ED1F0008ED1F0008ED1F0008ED1F0008E0
:1000D000ED1F0008291F0008ED1F0008ED1F000894
:1000E000ED1F0008ED1F0008ED1F0008ED1F0008C0
:1000F000ED1F0008ED1F0008ED1F0008ED1F0008B0
:10010000ED1F0008ED1F0008ED1F0008ED1F00089F
:10011000ED1F0008ED1F0008ED1F0008ED1F00088F
:10012000ED1F0008ED1F0008ED1F0008ED1F00087F
:1001300000000000000000000000000000000000BF
:1001400000000000000000000000000000000000AF
:10015000000000000000000000000000000000009F
:10016000000000000000000000000000000000008F
:10017000000000000000000000000000000000007F
:10018000000000000000000000000000000000006F
:10019000000000000000000000000000000000005F
:1001A000000000000000000000000000000000004F
:1001B000000000000000000000000000000000003F
:1001C000000000000000000000000000000000002F
:1001D000000000000000000000000000000000001F
:0401E0005FF8E0F1F3
:1001E40010B5054C237833B9044B13B10448AFF36D
:1001F40000800123237010BD1000002000000000C7
:100204004820000808B5034B1BB103490348AFF36A
:10021400008008BD000000001400002048200008F1
:1002240080B500AF084B1B68074A43F01003136006
:10023400032000F045F9002000F008F801F0ACFDBF
:100244000023184680BD00BF0020024080B582B064
:1002540000AF7860124B1A68124B1B7819464FF4A2
:100264007A73B3FBF1F3B2FBF3F3184600F05DF9D4
:100274000346002B01D001230EE07B680F2B0AD824
:10028400002279684FF0FF3000F025F9064A7B68B8
:100294001360002300E0012318460837BD4680BDE3
:1002A4000C000020040000200000002080B400AFF7
:1002B400054B1B781A46054B1B681344034A13600D
:1002C40000BFBD4680BC7047040000202C00002005
:1002D40080B400AF024B1B681846BD4680BC704713
:1002E4002C00002080B584B000AF7860FFF7F0FFE9
:1002F400B8607B68FB60FB68B3F1FF3F05D0094B36
:100304001B781A46FB681344FB6000BFFFF7E0FF4D
:100314000246BB68D31AFA689A42F7D800BF10376E
:10032400BD4680BD0400002080B485B000AF786075
:100334007B6803F00703FB600C4BDB68BB60BA68A7
:100344004FF6FF031340BB60FB681A02BB681343FC
:1003540043F0BF6343F40033BB60044ABB68D3601B
:1003640000BF1437BD4680BC704700BF00ED00E0FD
:1003740080B400AF044BDB681B0A03F00703184684
:10038400BD4680BC704700BF00ED00E080B483B080
:1003940000AF0346FB7197F90730002B0BDBFB79A9
:1003A40003F01F02064997F907305B09012000FAA0
:1003B40002F241F8232000BF0C37BD4680BC7047D1
:1003C40000E100E080B483B000AF03463960FB7104
:1003D40097F90730002B0ADB3B68DAB20C4997F92E
:1003E40007301201D2B20B4483F800230AE03B68C1
:1003F400DAB20849FB7903F00F03043B1201D2B2CD
:100404000B441A7600BF0C37BD4680BC704700BF52
:1004140000E100E000ED00E080B489B000AFF860D6
:10042400B9607A60FB6803F00703FB61FB69C3F101
:100434000703042B28BF0423BB61FB690433062B89
:1004440002D9FB69033B00E000237B614FF0FF32DC
:10045400BB6902FA03F3DA43BB681A407B699A402A
:100464004FF0FF317B6901FA03F3D9437B680B40FA
:10047400134318462437BD4680BC704780B582B00C
:1004840000AF78607B68013BB3F1807F01D3012327
:100494000FE00A4A7B68013B53600F214FF0FF30A5
:1004A400FFF790FF054B00229A60044B07221A6065
:1004B400002318460837BD4680BD00BF10E000E0A9
:1004C40080B582B000AF78607868FFF72DFF00BF79
:1004D4000837BD4680BD80B586B000AF0346B9601D
:1004E4007A60FB7300237B61FFF742FF78617A68CF
:1004F400B9687869FFF790FF024697F90F30114603
:100504001846FFF75FFF00BF1837BD4680BD80B5B2
:1005140082B000AF0346FB7197F907301846FFF726
:1005240035FF00BF0837BD4680BD80B582B000AF3F
:1005340078607868FFF7A2FF034618460837BD467F
:1005440080BD000080B584B000AF78600023FB73E9
:100554007B6893F82130022B05D07B6804229A63D0
:100564000123FB73D6E07B681B681A687B681B68F1
:1005740022F00E021A607B681B681A687B681B688D
:1005840022F001021A607B681B681A46644B9A4287
:1005940058D97B681B68634A93424FD07B681B68B9
:1005A400614A934248D07B681B68604A934240D0BA
:1005B4007B681B685E4A934238D07B681B685D4A3F
:1005C400934230D07B681B685B4A934228D07B6897
:1005D4001B68534A934220D07B681B68574A934256
:1005E40019D07B681B68564A934212D07B681B68FB
:1005F400544A93420AD07B681B68534A934202D1FF
:100604004FF480531BE04FF4803318E04FF48073B1
:1006140015E0102313E0012311E04FF080730EE086
:100624004FF480130BE04FF4803308E04FF4805311
:1006340005E04FF4807302E0102300E00123434AF5
:10064400536057E07B681B68364A93424FD07B68FF
:100654001B68354A934248D07B681B68334A9342EF
:1006640040D07B681B68324A934238D07B681B6851
:10067400304A934230D07B681B682F4A934228D07B
:100684007B681B68264A934220D07B681B682B4AF0
:10069400934219D07B681B68294A934212D07B6825
:1006A4001B68284A93420AD07B681B68264A9342F7
:1006B40002D14FF480531BE04FF4803318E04FF421
:1006C400807315E0102313E0012311E04FF08073D1
:1006D4000EE04FF480130BE04FF4803308E04FF446
:1006E400805305E04FF4807302E0102300E00123FF
:1006F400174A53607B68012283F821207B6800221B
:1007040083F820207B685B6B002B03D07B685B6BDA
:1007140078689847FB7B18461037BD4680BD00BFFC
:1007240080000240080002401C00024030000240E9
:1007340044000240580002406C0002400804024099
:100744001C040240300402404404024000040240FD
:100754000000024080B48BB000AF786039600023A1
:100764007B6200233B6233E101227B6A02FA03F3DA
:10077400FB613B681B68FA691340BB61BA69FB699A
:100784009A4240F022813B685B68122B34D0122BD2
:100794000DD8022B2BD0022B04D8002B31D0012BE7
:1007A4001CD048E0032B43D0112B1BD043E08F4ACD
:1007B400934226D08D4A934206D88D4A934220D044
:1007C4008C4A93421DD036E08B4A934219D08B4A0F
:1007D400934216D08A4A934213D02CE03B68DB68DC
:1007E4003B6228E03B68DB6804333B6223E03B6800
:1007F400DB6808333B621EE03B68DB680C333B621A
:1008040019E03B689B68002B02D104233B6212E091
:100814003B689B68012B05D108233B627B68FA691E
:100824001A6108E008233B627B68FA695A6102E0B6
:1008340000233B6200BFBB69FF2B01D87B6801E04A
:100844007B6804337B61BB69FF2B02D87B6A9B0006
:1008540002E07B6A083B9B003B617B691A680F21BD
:100864003B6901FA03F3DB431A40396A3B6901FA35
:1008740003F31A437B691A603B685B6803F0805397
:10088400002B00F0A2805F4B9B695E4A43F001039A
:1008940093615C4B9B6903F00103BB60BB685A4ADC
:1008A4007B6A9B08023352F82330FB607B6A03F0B7
:1008B40003039B000F2202FA03F3DB43FA6813409D
:1008C400FB607B68514A93421FD07B68504A934235
:1008D40019D07B684F4A934213D07B684E4A9342A7
:1008E4000DD07B684D4A934207D07B684C4A9342B3
:1008F40001D105230AE0062308E0042306E00323CC
:1009040004E0022302E0012300E000237A6A02F0FB
:10091400030292009340FA681343FB603A497B6AEE
:100924009B080233FA6841F823203B685B6803F4B0
:100934008033002B06D03B4B1A683A49BB691343FA
:100944000B6006E0374B1A68BB69DB43354913403B
:100954000B603B685B6803F40033002B06D0314B1B
:100964005A683049BB6913434B6006E02D4B5A6803
:10097400BB69DB432B4913404B603B685B6803F462
:100984008013002B06D0274B9A682649BB69134372
:100994008B6006E0234B9A68BB69DB432149134013
:1009A4008B603B685B6803F40013002B06D01D4B7F
:1009B400DA681C49BB691343CB6006E0194BDA685B
:1009C400BB69DB4317491340CB607B6A01337B620D
:1009D4003B681A687B6A22FA03F3002B7FF4C4AEE7
:1009E40000BF2C37BD4680BC704700BF00002110FB
:1009F400000011100000121000003110000032102D
:100A040000002210001002400000014000080140D4
:100A1400000C014000100140001401400018014086
:100A2400001C01400004014080B483B000AF786032
:100A34000B467B8013467B707B78002B03D07A882F
:100A44007B681A6103E07B881A047B681A6100BF23
:100A54000C37BD4680BC704780B582B000AF0346FA
:100A6400FB80084B5A69FB881340002B06D0054ACB
:100A7400FB885361FB88184600F006F800BF08376E
:100A8400BD4680BD0004014080B483B000AF03467E
:100A9400FB8000BF0C37BD4680BC704780B586B074
:100AA40000AF78607B68002B01D101236CE27B6886
:100AB4001B6803F00103002B00F08780924B5B68F6
:100AC40003F00C03042B0CD08F4B5B6803F00C0376
:100AD400082B12D18C4B5B6803F48033B3F5803F51
:100AE4000BD1894B1B6803F40033002B6CD07B685B
:100AF4005B68002B68D1012346E27B685B68B3F531
:100B0400803F06D1804B1B687F4A43F480331360D7
:100B14002EE07B685B68002B0CD17B4B1B687A4A08
:100B240023F480331360784B1B68774A23F48023C3
:100B340013601DE07B685B68B3F5A02F0CD1724B8A
:100B44001B68714A43F4802313606F4B1B686E4A21
:100B540043F4803313600BE06B4B1B686A4A23F445
:100B640080331360684B1B68674A23F48023136047
:100B74007B685B68002B13D0FFF7AAFB386108E0A1
:100B8400FFF7A6FB02463B69D31A642B01D9032362
:100B9400FAE15D4B1B6803F40033002BF0D014E042
:100BA400FFF796FB386108E0FFF792FB02463B69CA
:100BB400D31A642B01D90323E6E1534B1B6803F4D6
:100BC4000033002BF0D100E000BF7B681B6803F00A
:100BD4000203002B63D04C4B5B6803F00C03002B27
:100BE4000BD0494B5B6803F00C03082B1CD1464B1C
:100BF4005B6803F48033002B16D1434B1B6803F06E
:100C04000203002B05D07B681B69012B01D0012353
:100C1400BAE13D4B1B6823F0F8027B685B69DB009B
:100C2400394913430B603AE07B681B69002B20D0E1
:100C3400364B01221A60FFF74BFB386108E0FFF7DF
:100C440047FB02463B69D31A022B01D903239BE1DC
:100C54002D4B1B6803F00203002BF0D02A4B1B68BA
:100C640023F0F8027B685B69DB00274913430B60C0
:100C740015E0264B00221A60FFF72AFB386108E0D2
:100C8400FFF726FB02463B69D31A022B01D9032343
:100C94007AE11D4B1B6803F00203002BF0D17B6843
:100CA4001B6803F00803002B3AD07B689B69002B78
:100CB40019D0174B01221A60FFF70AFB386108E0CC
:100CC400FFF706FB02463B69D31A022B01D9032323
:100CD4005AE10D4B5B6A03F00203002BF0D00120B4
:100CE40000F0DAFA1CE00A4B00221A60FFF7F0FA6F
:100CF40038610FE0FFF7ECFA02463B69D31A022B86
:100D040008D9032340E100BF001002400000424222
:100D1400800442429E4B5B6A03F00203002BE9D13C
:100D24007B681B6803F00403002B00F0A6800023FB
:100D3400FB75974BDB6903F08053002B0DD1944B6B
:100D4400DB69934A43F08053D361914BDB6903F031
:100D54008053BB60BB680123FB758E4B1B6803F497
:100D64008073002B18D18B4B1B688A4A43F4807321
:100D74001360FFF7ADFA386108E0FFF7A9FA0246FD
:100D84003B69D31A642B01D90323FDE0814B1B6813
:100D940003F48073002BF0D07B68DB68012B06D151
:100DA4007B4B1B6A7A4A43F0010313622DE07B6894
:100DB400DB68002B0CD1764B1B6A754A23F00103C8
:100DC4001362734B1B6A724A23F0040313621CE020
:100DD4007B68DB68052B0CD16D4B1B6A6C4A43F0B6
:100DE400040313626A4B1B6A694A43F001031362EA
:100DF4000BE0674B1B6A664A23F001031362644BE2
:100E04001B6A634A23F0040313627B68DB68002BCC
:100E140015D0FFF75DFA38610AE0FFF759FA024688
:100E24003B69D31A41F28832934201D90323ABE0E0
:100E3400574B1B6A03F00203002BEED014E0FFF7BC
:100E440047FA38610AE0FFF743FA02463B69D31ACE
:100E540041F28832934201D9032395E04C4B1B6A3B
:100E640003F00203002BEED1FB7D012B05D1484B8F
:100E7400DB69474A23F08053D3617B68DB69002B2D
:100E840000F08180424B5B6803F00C03082B61D0B7
:100E94007B68DB69022B46D13F4B00221A60FFF7C7
:100EA40017FA386108E0FFF713FA02463B69D31AD0
:100EB400022B01D9032367E0354B1B6803F0007351
:100EC400002BF0D17B681B6AB3F5803F08D1304B0F
:100ED4005B6823F400327B689B682D4913434B60A5
:100EE4002B4B5B6823F474127B68196A7B685B6A1A
:100EF4000B43274913434B60274B01221A60FFF72A
:100F0400E7F9386108E0FFF7E3F902463B69D31AD1
:100F1400022B01D9032337E01D4B1B6803F0007338
:100F2400002BF0D02FE01C4B00221A60FFF7D0F901
:100F3400386108E0FFF7CCF902463B69D31A022B6B
:100F440001D9032320E0124B1B6803F00073002B2C
:100F5400F0D118E07B68DB69012B01D1012313E098
:100F64000B4B5B68FB60FB6803F480327B681B6A95
:100F74009A4206D1FB6803F470127B685B6A9A425A
:100F840001D0012300E0002318461837BD4680BD78
:100F940000100240007000406000424280B584B0FE
:100FA40000AF786039607B68002B01D10123D0E069
:100FB4006A4B1B6803F007033A689A4210D9674BDF
:100FC4001B6823F0070265493B6813430B60634BBE
:100FD4001B6803F007033A689A4201D00123B8E082
:100FE4007B681B6803F00203002B20D07B681B681E
:100FF40003F00403002B05D0594B5B68584A43F4B3
:10100400E06353607B681B6803F00803002B05D082
:10101400534B5B68524A43F460535360504B5B68D4
:1010240023F0F0027B689B684D4913434B607B6857
:101034001B6803F00103002B40D07B685B68012B25
:1010440007D1474B1B6803F40033002B15D1012350
:101054007FE07B685B68022B07D1414B1B6803F080
:101064000073002B09D1012373E03D4B1B6803F08F
:101074000203002B01D101236BE0394B5B6823F0A1
:1010840003027B685B68364913434B60FFF720F922
:10109400F8600AE0FFF71CF90246FB68D31A41F234
:1010A4008832934201D9032353E02D4B5B6803F04C
:1010B4000C027B685B689B009A42EBD1274B1B6850
:1010C40003F007033A689A4210D2244B1B6823F0BA
:1010D400070222493B6813430B60204B1B6803F053
:1010E40007033A689A4201D0012332E07B681B6807
:1010F40003F00403002B08D0194B5B6823F4E0626F
:101104007B68DB68164913434B607B681B6803F0FC
:101114000803002B09D0124B5B6823F460527B68F0
:101124001B69DB000E4913434B6000F021F80146B4
:101134000B4B5B681B0903F00F030A4AD35C21FACB
:1011440003F3094A1360094B1B681846FFF77EF83E
:10115400002318461037BD4680BD00BF0020024062
:1011640000100240742000080C0000200000002041
:1011740090B48AB000AF2A4B3C1D0FCB84E80F001B
:10118400284B1B883B800023FB610023BB610023A9
:101194007B6200237B6100233B62234B5B68FB6122
:1011A400FB6903F00C03042B02D0082B03D02DE0C1
:1011B4001E4B3B622DE0FB699B0C03F00F0307F110
:1011C4002802134413F8243C7B61FB6903F4803345
:1011D400002B13D0144B5B685B0C03F0010307F185
:1011E4002802134413F8283CBB617B690F4A02FBB5
:1011F40003F2BB69B2FBF3F37B6204E07B690C4A44
:1012040002FB03F37B627B6A3B6202E0074B3B62B7
:1012140000BF3B6A18462837BD4690BC704700BFE4
:1012240060200008702000080010024000127A00BC
:1012340000093D0080B400AF024B1B681846BD4650
:1012440080BC70470C00002080B500AFFFF7F2FFB0
:101254000146054B5B681B0A03F00703034AD35C92
:1012640021FA03F3184680BD0010024084200008D0
:1012740080B500AFFFF7DEFF0146054B5B68DB0A74
:1012840003F00703034AD35C21FA03F3184680BD35
:10129400001002408420000880B485B000AF78605C
:1012A4000A4B1B680A4AA2FB03235B0A7A6802FB07
:1012B40003F3FB6000BFFB685A1EFA60002BF9D1F0
:1012C40000BF1437BD4680BC704700BF0C0000202F
:1012D400D34D621080B582B000AF78607B68002B7C
:1012E40001D101233FE07B6893F83930DBB2002B56
:1012F40006D17B68002283F83820786800F07EFDF0
:101304007B68242283F839207B681B68DA687B6851
:101314001B6822F40052DA60786800F0E5FA7B6812
:101324001B681A697B681B6822F490421A617B6807
:101334001B685A697B681B6822F02A025A617B6821
:101344001B68DA687B681B6842F40052DA607B68C9
:101354000022DA637B68202283F839207B6820220C
:1013640083F83A20002318460837BD4680BD80B470
:1013740085B000AFF860B9601346FB80FB6893F852
:101384003930DBB2202B30D1BB68002B02D0FB8874
:10139400002B01D1012329E0FB6893F83830012B9D
:1013A40001D1022322E0FB68012283F83820FB6884
:1013B400BA681A62FB68FA889A84FB68FA88DA8445
:1013C400FB680022DA63FB68212283F83920FB687A
:1013D400002283F83820FB681B68DA68FB681B6806
:1013E40042F08002DA60002300E00223184614373A
:1013F400BD4680BC704780B485B000AFF860B9606A
:101404001346FB80FB6893F83A30DBB2202B40D1C3
:10141400BB68002B02D0FB88002B01D1012339E0EB
:10142400FB6893F83830012B01D1022332E0FB68CA
:10143400012283F83820FB68BA689A62FB68FA884C
:101444009A85FB68FA88DA85FB680022DA63FB6810
:10145400222283F83A20FB68002283F83820FB68B4
:101464001B68DA68FB681B6842F48072DA60FB6808
:101474001B685A69FB681B6842F001025A61FB68E9
:101484001B68DA68FB681B6842F02002DA600023FC
:1014940000E0022318461437BD4680BC70470000A4
:1014A40080B588B000AF78607B681B681B68FB61FF
:1014B4007B681B68DB68BB617B681B685B697B615D
:1014C40000233B610023FB60FB6903F00F033B61D6
:1014D4003B69002B0DD1FB6903F02003002B08D0DE
:1014E400BB6903F02003002B03D0786800F07BF97C
:1014F400CCE03B69002B00F0AB807B6903F0010377
:10150400002B05D1BB6903F49073002B00F0A0807D
:10151400FB6903F00103002B0AD0BB6903F4807359
:10152400002B05D07B68DB6B43F001027B68DA6338
:10153400FB6903F00403002B0AD07B6903F0010369
:10154400002B05D07B68DB6B43F002027B68DA6317
:10155400FB6903F00203002B0AD07B6903F001034B
:10156400002B05D07B68DB6B43F004027B68DA63F5
:10157400FB6903F00803002B0AD07B6903F0010325
:10158400002B05D07B68DB6B43F008027B68DA63D1
:101594007B68DB6B002B78D0FB6903F02003002B06
:1015A40007D0BB6903F02003002B02D0786800F059
:1015B4001AF97B681B685B6903F04003002B14BFB6
:1015C40001230023DBB2FB607B68DB6B03F00803C1
:1015D400002B02D1FB68002B31D0786800F065F84D
:1015E4007B681B685B6903F04003002B23D07B6896
:1015F4001B685A697B681B6822F040025A617B6849
:101604005B6B002B13D07B685B6B224A5A637B684D
:101614005B6B1846FEF796FF0346002B16D07B68DB
:101624005B6B5B6B7A68526B104698470EE0786888
:1016340000F032F80AE0786800F02EF806E07868E6
:1016440000F02AF87B680022DA631EE000BF1CE089
:10165400FB6903F08003002B08D0BB6903F080030F
:10166400002B03D0786800F051F80FE0FB6903F019
:101674004003002B0AD0BB6903F04003002B05D0C4
:10168400786800F098F800BF00E000BF2037BD463E
:1016940080BD00BFE916000880B483B000AF786055
:1016A40000BF0C37BD4680BC704780B483B000AF28
:1016B40078607B681B68DA687B681B6822F4907228
:1016C400DA607B681B685A697B681B6822F0010238
:1016D4005A617B68202283F83A2000BF0C37BD464C
:1016E40080BC704780B584B000AF78607B685B6A6B
:1016F400FB60FB680022DA85FB680022DA84F86864
:10170400FFF7CAFF00BF1037BD4680BD80B485B067
:1017140000AF78607B6893F83930DBB2212B44D179
:101724007B689B68B3F5805F1AD17B681B6AFB609A
:10173400FB681B881A467B681B68C2F308025A6060
:101744007B681B69002B05D17B681B6A9A1C7B682C
:101754001A620EE07B681B6A5A1C7B681A6208E0F6
:101764007B681B6A591C7A6811621A787B681B684B
:101774005A607B68DB8C9BB2013B9BB27A6819464A
:10178400D184002B0FD17B681B68DA687B681B68E7
:1017940022F08002DA607B681B68DA687B681B6869
:1017A40042F04002DA60002300E0022318461437B6
:1017B400BD4680BC704780B582B000AF78607B685E
:1017C4001B68DA687B681B6822F04002DA607B6879
:1017D400202283F83920786800F076F9002318462F
:1017E4000837BD4680BD80B584B000AF78607B68A3
:1017F40093F83A30DBB2222B71D17B689B68B3F546
:10180400805F23D17B689B6AFB607B681B69002B2C
:101814000ED17B681B685B689BB2C3F308039AB262
:10182400FB681A807B689B6A9A1C7B689A6229E031
:101834007B681B685B689BB2DBB29AB2FB681A8058
:101844007B689B6A5A1C7B689A621BE07B681B69F5
:10185400002B0AD17B681B6858687B689B6A591CFB
:101864007A689162C2B21A700CE07B681B685B688C
:10187400DAB27B689B6A581C7968886202F07F023E
:10188400D2B21A707B68DB8D9BB2013B9BB27A6843
:101894001946D185002B20D17B681B68DA687B68E8
:1018A4001B6822F02002DA607B681B68DA687B68B8
:1018B4001B6822F48072DA607B681B685A697B6853
:1018C4001B6822F001025A617B68202283F83A20C7
:1018D400786800F0E3F8002302E0002300E002232C
:1018E40018461037BD4680BD80B584B000AF78601F
:1018F4007B681B681B6923F440517B68DA687B684A
:101904001B680A431A617B689A687B681B691A43DF
:101914007B685B691343FB607B681B68DB6823F4AB
:10192400B05323F00C037A681268F9680B43D36050
:101934007B681B685B6923F440717B689A697B68E8
:101944001B680A435A617B681B68524A93424ED112
:10195400FFF78EFCB860BA6813469B0013449A00E4
:101964001A447B685B689B00B2FBF3F34A4AA2FB10
:1019740003235B091901BA6813469B0013449A00B8
:101984001A447B685B689B00B2FBF3F2424BA3FBF7
:1019940002035B09642000FB03F3D31A1B013233F7
:1019A4003D4AA2FB03235B0903F0F0031944BA6820
:1019B40013469B0013449A001A447B685B689B009F
:1019C400B2FBF3F2344BA3FB02035B09642000FB7C
:1019D40003F3D31A1B0132332F4AA2FB03235B09FF
:1019E40003F00F027B681B680A449A604DE0FFF71E
:1019F4002BFCB860BA6813469B0013449A001A443F
:101A04007B685B689B00B2FBF3F3234AA2FB0323CE
:101A14005B091901BA6813469B0013449A001A44DF
:101A24007B685B689B00B2FBF3F21B4BA3FB0203D6
:101A34005B09642000FB03F3D31A1B013233164AFB
:101A4400A2FB03235B0903F0F0031944BA681346AD
:101A54009B0013449A001A447B685B689B00B2FBAA
:101A6400F3F20D4BA3FB02035B09642000FB03F3B9
:101A7400D31A1B013233084AA2FB03235B0903F088
:101A84000F027B681B680A449A6000BF1037BD468A
:101A940080BD00BF003801401F85EB5180B582B086
:101AA40000AF7860022206490648FFF760FC022274
:101AB40003490448FFF79FFC00BF0837BD4680BDBB
:101AC400080000203000002080B483B000AF7860AC
:101AD400034B01221A7000BF0C37BD4680BC70470F
:101AE4007000002080B500AFFEF79AFB00F042F8CA
:101AF40000F0B0F800F084F8022219491948FFF701
:101B04007AFC174B1B78312B14BF01230023DBB263
:101B14001A4620211448FEF787FF114B5B78312BBE
:101B240014BF01230023DBB21A4620210F48FEF71D
:101B34007BFF0F4B1B78002BE3D00D4B00221A7058
:101B440001224FF480710848FEF76EFF6420FEF70F
:101B5400C9FB00224FF480710348FEF765FFD0E70C
:101B64000800002030000020000C01400018014053
:101B74007000002080B590B000AF07F11803282250
:101B84000021184600F056FA3B1D00221A605A60E4
:101B94009A60DA601A610123BB614FF48033FB6100
:101BA40000233B620123BB6202237B634FF4803337
:101BB400BB634FF4E013FB6307F118031846FEF709
:101BC4006DFF0346002B01D000F0E0F80F237B608B
:101BD4000223BB600023FB604FF480633B6100235E
:101BE4007B613B1D02211846FFF7D8F90346002B01
:101BF40001D000F0CBF800BF4037BD4680BD0000E7
:101C040080B500AF114B124A1A60104B4FF4E13209
:101C14005A600E4B00229A600C4B0022DA600B4B88
:101C240000221A61094B0C225A61084B00229A6166
:101C3400064B0022DA610548FFF74CFB0346002BF4
:101C440001D000F0A3F800BF80BD00BF3000002029
:101C54000038014080B588B000AF07F110030022BE
:101C64001A605A609A60DA60424B9B69414A43F0B9
:101C7400400393613F4B9B6903F04003FB60FB68A7
:101C84003C4B9B693B4A43F004039361394B9B698A
:101C940003F00403BB60BB68364B9B69354A43F0D1
:101CA40008039361334B9B6903F008037B607B68F3
:101CB400012220213048FEF7B7FE012220212F48BF
:101CC400FEF7B2FE00224FF480712C48FEF7ACFE02
:101CD40018233B612A4B7B610123BB6107F110038D
:101CE40019462548FEF736FD20233B6101237B611D
:101CF4000023BB610223FB6107F1100319461E4850
:101D0400FEF728FD01233B611E4B7B610223BB616F
:101D140007F1100319461C48FEF71CFD4FF490739D
:101D24003B6101237B610023BB610223FB6107F15B
:101D3400100319461148FEF70DFD0022012106206B
:101D4400FEF7C9FB0620FEF7E2FB00220121092071
:101D5400FEF7C1FB0920FEF7DAFB002201210A206D
:101D6400FEF7B9FB0A20FEF7D2FB00BF2037BD46C1
:101D740080BD00BF0010024000180140000C01406B
:101D840000002110000011100008014080B400AFD1
:101D940000BFBD4680BC704780B485B000AF154B12
:101DA4009B69144A43F001039361124B9B6903F04E
:101DB4000103BB60BB680F4BDB690E4A43F08053E1
:101DC400D3610C4BDB6903F080537B607B680A4B67
:101DD4005B68FB60FB6823F0E063FB60FB6843F037
:101DE4000073FB60044AFB68536000BF1437BD46B0
:101DF40080BC7047001002400000014080B588B0EC
:101E040000AF786007F1100300221A605A609A60EC
:101E1400DA607B681B68204A934239D11F4B9B6967
:101E24001E4A43F4804393611C4B9B6903F4804333
:101E3400FB60FB68194B9B69184A43F004039361E8
:101E4400164B9B6903F00403BB60BB684FF400733B
:101E54003B6102237B610323FB6107F110031946F5
:101E64000F48FEF777FC4FF480633B6100237B61EE
:101E74000023BB6107F1100319460948FEF76AFC09
:101E8400002200212520FEF726FB2520FEF73FFB3C
:101E940000BF2037BD4680BD00380140001002401D
:101EA4000008014080B400AF00BFBD4680BC70474D
:101EB40080B400AFFEE780B400AFFEE780B400AFAB
:101EC400FEE780B400AFFEE780B400AF00BFBD46BC
:101ED40080BC704780B400AF00BFBD4680BC704773
:101EE40080B400AF00BFBD4680BC704780B500AF72
:101EF400FEF7DCF900BF80BD80B500AF0120FEF71E
:101F0400ABFD00BF80BD80B500AF0820FEF7A4FD87
:101F140000BF80BD80B500AF1020FEF79DFD00BF5F
:101F240080BD000080B500AF0248FFF7B9FA00BFDA
:101F340080BD00BF3000002080B400AF154B1B688B
:101F4400144A43F001031360124B5A681149124BAF
:101F540013404B600F4B1B680E4A23F0847323F429
:101F6400803313600B4B1B680A4A23F480231360ED
:101F7400084B5B68074A23F4FE035360054B4FF498
:101F84001F029A60054B4FF000629A6000BFBD4685
:101F940080BC7047001002400000FFF800ED00E034
:101FA400002103E00B4B5B58435004310A480B4BB0
:101FB40042189A42F6D30A4A02E0002342F8043B4C
:101FC400084B9A42F9D3FFF7B7FF00F00FF8FFF779
:101FD40089FD7047942000080000002010000020B4
:101FE4001000002074000020FEE7000070B50026F9
:101FF4000C4D0D4C641BA410A64209D100F022F82C
:1020040000260A4D0A4C641BA410A64205D170BDDB
:1020140055F8043B98470136EEE755F8043B9847DA
:102024000136F2E78C2000088C2000088C20000880
:102034009020000803460244934200D1704703F8FD
:10204400011BF9E7F8B500BFF8BC08BC9E46704711
:0C205400F8B500BFF8BC08BC9E46704701
:1020600002030405060708090A0B0C0D0E0F1010D9
:102070000102000000000000000000000102030453
:0C2080000607080900000000010203042C
:04208C00090200083D
:04209000E50100085E
:102094001000000001000000303000000024F400B3
:0400000508001FA52B
:00000001FF
