:020000040800F2
:1000000000000120D12A0008D5290008E1290008B4
:10001000E7290008ED290008F32900080000000086
:10002000000000000000000000000000F9290008A6
:10003000052A000800000000112A00081D2A0008F7
:10004000192B0008192B0008192B0008192B000880
:10005000192B0008192B0008292A0008192B000861
:10006000192B0008372A0008452A0008192B000818
:10007000192B0008192B0008192B0008192B000850
:10008000192B0008192B0008192B0008192B000840
:10009000192B0008192B0008192B0008192B000830
:1000A000192B0008192B0008192B0008192B000820
:1000B000192B0008192B0008192B0008192B000810
:1000C000192B0008192B0008192B0008192B000800
:1000D000192B0008552A0008192B0008192B0008B5
:1000E000192B0008192B0008192B0008192B0008E0
:1000F000192B0008192B0008192B0008192B0008D0
:10010000192B0008192B0008192B0008192B0008BF
:10011000192B0008192B0008192B0008192B0008AF
:10012000192B0008192B0008192B0008192B00089F
:1001300000000000000000000000000000000000BF
:1001400000000000000000000000000000000000AF
:10015000000000000000000000000000000000009F
:10016000000000000000000000000000000000008F
:10017000000000000000000000000000000000007F
:10018000000000000000000000000000000000006F
:10019000000000000000000000000000000000005F
:1001A000000000000000000000000000000000004F
:1001B000000000000000000000000000000000003F
:1001C000000000000000000000000000000000002F
:1001D000000000000000000000000000000000001F
:0401E0005FF8E0F1F3
:1001E40010B5054C237833B9044B13B10448AFF36D
:1001F40000800123237010BD0C00002000000000CB
:10020400742B000808B5034B1BB103490348AFF333
:10021400008008BD0000000010000020742B0008BE
:1002240080B500AF084B1B68074A43F01003136006
:10023400032000F023F9002000F008F802F0DCFAB3
:100244000023184680BD00BF0020024080B582B064
:1002540000AF7860124B1A68124B1B7819464FF4A2
:100264007A73B3FBF1F3B2FBF3F3184600F03BF9F6
:100274000346002B01D001230EE07B680F2B0AD824
:10028400002279684FF0FF3000F003F9064A7B68DA
:100294001360002300E0012318460837BD4680BDE3
:1002A40008000020040000200000002080B400AFFB
:1002B400054B1B781A46054B1B681344034A13600D
:1002C40000BFBD4680BC7047040000202800002009
:1002D40080B400AF024B1B681846BD4680BC704713
:1002E4002800002080B485B000AF78607B6803F0FC
:1002F4000703FB600C4BDB68BB60BA684FF6FF0377
:100304001340BB60FB681A02BB68134343F0BF632E
:1003140043F40033BB60044ABB68D36000BF1437A6
:10032400BD4680BC704700BF00ED00E080B400AF64
:10033400044BDB681B0A03F007031846BD4680BC68
:10034400704700BF00ED00E080B483B000AF034607
:10035400FB7197F90730002B0BDBFB7903F01F02CD
:10036400064997F907305B09012000FA02F241F8C7
:10037400232000BF0C37BD4680BC704700E100E07D
:1003840080B483B000AF03463960FB7197F907303E
:10039400002B0ADB3B68DAB20C4997F907301201EB
:1003A400D2B20B4483F800230AE03B68DAB208496E
:1003B400FB7903F00F03043B1201D2B20B441A760B
:1003C40000BF0C37BD4680BC704700BF00E100E0B1
:1003D40000ED00E080B489B000AFF860B9607A60E5
:1003E400FB6803F00703FB61FB69C3F10703042BFC
:1003F40028BF0423BB61FB690433062B02D9FB69C4
:10040400033B00E000237B614FF0FF32BB6902FA3B
:1004140003F3DA43BB681A407B699A404FF0FF311B
:100424007B6901FA03F3D9437B680B4013431846F5
:100434002437BD4680BC704780B582B000AF786079
:100444007B68013BB3F1807F01D301230FE00A4AAB
:100454007B68013B53600F214FF0FF30FFF790FFA3
:10046400054B00229A60044B07221A6000231846A9
:100474000837BD4680BD00BF10E000E080B582B003
:1004840000AF78607868FFF72DFF00BF0837BD46DE
:1004940080BD80B586B000AF0346B9607A60FB7357
:1004A40000237B61FFF742FF78617A68B968786955
:1004B400FFF790FF024697F90F3011461846FFF7F1
:1004C4005FFF00BF1837BD4680BD80B582B000AF66
:1004D4000346FB7197F907301846FFF735FF00BF55
:1004E4000837BD4680BD80B582B000AF78607868BB
:1004F400FFF7A2FF034618460837BD4680BD00003B
:1005040080B584B000AF78600023FB737B6893F8F8
:100514002130022B05D07B6804229A630123FB73EC
:10052400D6E07B681B681A687B681B6822F00E02A1
:100534001A607B681B681A687B681B6822F00102DA
:100544001A607B681B681A46644B9A4258D97B68C8
:100554001B68634A93424FD07B681B68614A93428D
:1005640048D07B681B68604A934240D07B681B6814
:100574005E4A934238D07B681B685D4A934230D010
:100584007B681B685B4A934228D07B681B68534A8C
:10059400934220D07B681B68574A934219D07B68EA
:1005A4001B68564A934212D07B681B68544A934294
:1005B4000AD07B681B68534A934202D14FF480539C
:1005C4001BE04FF4803318E04FF4807315E01023E0
:1005D40013E0012311E04FF080730EE04FF4801319
:1005E4000BE04FF4803308E04FF4805305E04FF400
:1005F400807302E0102300E00123434A536057E074
:100604007B681B68364A93424FD07B681B68354A27
:10061400934248D07B681B68334A934240D07B683E
:100624001B68324A934238D07B681B68304A934235
:1006340030D07B681B682F4A934228D07B681B68A4
:10064400264A934220D07B681B682B4A934219D0D8
:100654007B681B68294A934212D07B681B68284A2E
:1006640093420AD07B681B68264A934202D14FF416
:1006740080531BE04FF4803318E04FF4807315E08F
:10068400102313E0012311E04FF080730EE04FF4C8
:1006940080130BE04FF4803308E04FF4805305E0FF
:1006A4004FF4807302E0102300E00123174A5360E3
:1006B4007B68012283F821207B68002283F82020B4
:1006C4007B685B6B002B03D07B685B6B7868984717
:1006D400FB7B18461037BD4680BD00BF800002403A
:1006E400080002401C000240300002404400024066
:1006F400580002406C000240080402401C040240FE
:10070400300402404404024000040240000002405D
:1007140080B48BB000AF7860396000237B62002323
:100724003B6233E101227B6A02FA03F3FB613B681B
:100734001B68FA691340BB61BA69FB699A4240F0CD
:1007440022813B685B68122B34D0122B0DD8022B0C
:100754002BD0022B04D8002B31D0012B1CD048E025
:10076400032B43D0112B1BD043E08F4A934226D056
:100774008D4A934206D88D4A934220D08C4A9342A4
:100784001DD036E08B4A934219D08B4A934216D03F
:100794008A4A934213D02CE03B68DB683B6228E032
:1007A4003B68DB6804333B6223E03B68DB68083367
:1007B4003B621EE03B68DB680C333B6219E03B683C
:1007C4009B68002B02D104233B6212E03B689B68C8
:1007D400012B05D108233B627B68FA691A6108E0A2
:1007E40008233B627B68FA695A6102E000233B629A
:1007F40000BFBB69FF2B01D87B6801E07B68043331
:100804007B61BB69FF2B02D87B6A9B0002E07B6A99
:10081400083B9B003B617B691A680F213B6901FA25
:1008240003F3DB431A40396A3B6901FA03F31A43C1
:100834007B691A603B685B6803F08053002B00F00F
:10084400A2805F4B9B695E4A43F0010393615C4B5A
:100854009B6903F00103BB60BB685A4A7B6A9B082F
:10086400023352F82330FB607B6A03F003039B00DE
:100874000F2202FA03F3DB43FA681340FB607B6840
:10088400514A93421FD07B68504A934219D07B68E7
:100894004F4A934213D07B684E4A93420DD07B68F3
:1008A4004D4A934207D07B684C4A934201D10523B9
:1008B4000AE0062308E0042306E0032304E00223FD
:1008C40002E0012300E000237A6A02F003029200AE
:1008D4009340FA681343FB603A497B6A9B080233EE
:1008E400FA6841F823203B685B6803F48033002BEB
:1008F40006D03B4B1A683A49BB6913430B6006E0C8
:10090400374B1A68BB69DB43354913400B603B68BE
:100914005B6803F40033002B06D0314B5A6830492E
:10092400BB6913434B6006E02D4B5A68BB69DB433C
:100934002B4913404B603B685B6803F48013002B26
:1009440006D0274B9A682649BB6913438B6006E09F
:10095400234B9A68BB69DB43214913408B603B6896
:100964005B6803F40013002B06D01D4BDA681C49A6
:10097400BB691343CB6006E0194BDA68BB69DB4300
:1009840017491340CB607B6A01337B623B681A686A
:100994007B6A22FA03F3002B7FF4C4AE00BF2C372A
:1009A400BD4680BC704700BF00002110000011103C
:1009B400000012100000311000003210000022105C
:1009C400001002400000014000080140000C0140FA
:1009D400001001400014014000180140001C0140B7
:1009E4000004014080B483B000AF78600B467B8084
:1009F40013467B707B78002B03D07A887B681A615E
:100A040003E07B881A047B681A6100BF0C37BD467B
:100A140080BC704780B582B000AF0346FB80084BB2
:100A24005A69FB881340002B06D0054AFB885361A2
:100A3400FB88184600F006F800BF0837BD4680BDA5
:100A44000004014080B483B000AF0346FB8000BFC4
:100A54000C37BD4680BC704780B586B000AF786067
:100A64007B68002B01D101236CE27B681B6803F0D7
:100A74000103002B00F08780924B5B6803F00C03AA
:100A8400042B0CD08F4B5B6803F00C03082B12D1A2
:100A94008C4B5B6803F48033B3F5803F0BD1894BF7
:100AA4001B6803F40033002B6CD07B685B68002B5D
:100AB40068D1012346E27B685B68B3F5803F06D1C9
:100AC400804B1B687F4A43F4803313602EE07B68BD
:100AD4005B68002B0CD17B4B1B687A4A23F4803370
:100AE4001360784B1B68774A23F4802313601DE05E
:100AF4007B685B68B3F5A02F0CD1724B1B68714AFD
:100B040043F4802313606F4B1B686E4A43F48033B5
:100B140013600BE06B4B1B686A4A23F48033136049
:100B2400684B1B68674A23F4802313607B685B6807
:100B3400002B13D0FFF7CCFB386108E0FFF7C8FBAC
:100B440002463B69D31A642B01D90323FAE15D4BB6
:100B54001B6803F40033002BF0D014E0FFF7B8FB5C
:100B6400386108E0FFF7B4FB02463B69D31A642BF3
:100B740001D90323E6E1534B1B6803F40033002B34
:100B8400F0D100E000BF7B681B6803F00203002B78
:100B940063D04C4B5B6803F00C03002B0BD0494B28
:100BA4005B6803F00C03082B1CD1464B5B6803F411
:100BB4008033002B16D1434B1B6803F00203002B38
:100BC40005D07B681B69012B01D00123BAE13D4BA1
:100BD4001B6823F0F8027B685B69DB003949134327
:100BE4000B603AE07B681B69002B20D0364B012256
:100BF4001A60FFF76DFB386108E0FFF769FB0246F6
:100C04003B69D31A022B01D903239BE12D4B1B68AB
:100C140003F00203002BF0D02A4B1B6823F0F802E8
:100C24007B685B69DB00274913430B6015E0264BA7
:100C340000221A60FFF74CFB386108E0FFF748FB1D
:100C440002463B69D31A022B01D903237AE11D4BD7
:100C54001B6803F00203002BF0D17B681B6803F0D0
:100C64000803002B3AD07B689B69002B19D0174BE3
:100C740001221A60FFF72CFB386108E0FFF728FB1C
:100C840002463B69D31A022B01D903235AE10D4BC7
:100C94005B6A03F00203002BF0D0012000F0DAFAC3
:100CA4001CE00A4B00221A60FFF712FB38610FE0C8
:100CB400FFF70EFB02463B69D31A022B08D9032324
:100CC40040E100BF00100240000042428004424262
:100CD4009E4B5B6A03F00203002BE9D17B681B681F
:100CE40003F00403002B00F0A6800023FB75974B50
:100CF400DB6903F08053002B0DD1944BDB69934ADD
:100D040043F08053D361914BDB6903F08053BB60A4
:100D1400BB680123FB758E4B1B6803F48073002BA7
:100D240018D18B4B1B688A4A43F480731360FFF716
:100D3400CFFA386108E0FFF7CBFA02463B69D31AD1
:100D4400642B01D90323FDE0814B1B6803F48073FA
:100D5400002BF0D07B68DB68012B06D17B4B1B6A30
:100D64007A4A43F0010313622DE07B68DB68002BB1
:100D74000CD1764B1B6A754A23F001031362734B43
:100D84001B6A724A23F0040313621CE07B68DB686D
:100D9400052B0CD16D4B1B6A6C4A43F004031362A0
:100DA4006A4B1B6A694A43F0010313620BE0674B09
:100DB4001B6A664A23F001031362644B1B6A634A8D
:100DC40023F0040313627B68DB68002B15D0FFF764
:100DD4007FFA38610AE0FFF77BFA02463B69D31ACF
:100DE40041F28832934201D90323ABE0574B1B6A8B
:100DF40003F00203002BEED014E0FFF769FA386128
:100E04000AE0FFF765FA02463B69D31A41F28832D9
:100E1400934201D9032395E04C4B1B6A03F0020370
:100E2400002BEED1FB7D012B05D1484BDB69474AF2
:100E340023F08053D3617B68DB69002B00F0818051
:100E4400424B5B6803F00C03082B61D07B68DB69C1
:100E5400022B46D13F4B00221A60FFF739FA386162
:100E640008E0FFF735FA02463B69D31A022B01D991
:100E7400032367E0354B1B6803F00073002BF0D1AC
:100E84007B681B6AB3F5803F08D1304B5B6823F461
:100E940000327B689B682D4913434B602B4B5B6886
:100EA40023F474127B68196A7B685B6A0B432749D5
:100EB40013434B60274B01221A60FFF709FA38618C
:100EC40008E0FFF705FA02463B69D31A022B01D961
:100ED400032337E01D4B1B6803F00073002BF0D095
:100EE4002FE01C4B00221A60FFF7F2F9386108E08A
:100EF400FFF7EEF902463B69D31A022B01D903230B
:100F040020E0124B1B6803F00073002BF0D118E0B3
:100F14007B68DB69012B01D1012313E00B4B5B6878
:100F2400FB60FB6803F480327B681B6A9A4206D13B
:100F3400FB6803F470127B685B6A9A4201D0012358
:100F440000E0002318461837BD4680BD001002405B
:100F5400007000406000424280B584B000AF786009
:100F640039607B68002B01D10123D0E06A4B1B68F8
:100F740003F007033A689A4210D9674B1B6823F0C1
:100F8400070265493B6813430B60634B1B6803F01E
:100F940007033A689A4201D00123B8E07B681B68D2
:100FA40003F00203002B20D07B681B6803F00403CA
:100FB400002B05D0594B5B68584A43F4E0635360F7
:100FC4007B681B6803F00803002B05D0534B5B6858
:100FD400524A43F460535360504B5B6823F0F00271
:100FE4007B689B684D4913434B607B681B6803F027
:100FF4000103002B40D07B685B68012B07D1474B72
:101004001B6803F40033002B15D101237FE07B68B8
:101014005B68022B07D1414B1B6803F00073002B64
:1010240009D1012373E03D4B1B6803F00203002B3D
:1010340001D101236BE0394B5B6823F003027B6829
:101044005B68364913434B60FFF742F9F8600AE0E6
:10105400FFF73EF90246FB68D31A41F28832934205
:1010640001D9032353E02D4B5B6803F00C027B682A
:101074005B689B009A42EBD1274B1B6803F0070384
:101084003A689A4210D2244B1B6823F00702224983
:101094003B6813430B60204B1B6803F007033A685B
:1010A4009A4201D0012332E07B681B6803F00403F9
:1010B400002B08D0194B5B6823F4E0627B68DB6883
:1010C400164913434B607B681B6803F00803002B2D
:1010D40009D0124B5B6823F460527B681B69DB0008
:1010E4000E4913434B6000F021F801460B4B5B683B
:1010F4001B0903F00F030A4AD35C21FA03F3094ADC
:101104001360094B1B681846FFF7A0F80023184624
:101114001037BD4680BD00BF0020024000100240D1
:10112400A02B0008080000200000002090B48AB022
:1011340000AF2A4B3C1D0FCB84E80F00284B1B88C3
:101144003B800023FB610023BB6100237B620023FF
:101154007B6100233B62234B5B68FB61FB6903F00B
:101164000C03042B02D0082B03D02DE01E4B3B6252
:101174002DE0FB699B0C03F00F0307F128021344D5
:1011840013F8243C7B61FB6903F48033002B13D0F8
:10119400144B5B685B0C03F0010307F12802134452
:1011A40013F8283CBB617B690F4A02FB03F2BB695D
:1011B400B2FBF3F37B6204E07B690C4A02FB03F3AA
:1011C4007B627B6A3B6202E0074B3B6200BF3B6A87
:1011D40018462837BD4690BC704700BF8C2B0008CA
:1011E4009C2B00080010024000127A0000093D0008
:1011F40080B400AF024B1B681846BD4680BC7047E4
:101204000800002080B500AFFFF7F2FF0146054B50
:101214005B681B0A03F00703034AD35C21FA03F358
:10122400184680BD00100240B02B000880B500AF06
:10123400FFF7DEFF0146054B5B68DB0A03F007039B
:10124400034AD35C21FA03F3184680BD0010024020
:10125400B02B000880B485B000AF78600A4B1B68DF
:101264000A4AA2FB03235B0A7A6802FB03F3FB60CE
:1012740000BFFB685A1EFA60002BF9D100BF143777
:10128400BD4680BC704700BF08000020D34D6210EB
:1012940080B582B000AF78607B68002B01D1012358
:1012A4001DE07B6893F83D30DBB2002B06D17B68F0
:1012B400002283F83C20786801F0D0FA7B6802228F
:1012C40083F83D207B681A687B680433194610460E
:1012D40000F0FAF97B68012283F83D2000231846C8
:1012E4000837BD4680BD80B582B000AF78607B68AA
:1012F400002B01D101231DE07B6893F83D30DBB264
:10130400002B06D17B68002283F83C20786800F02B
:1013140015F87B68022283F83D207B681A687B6895
:1013240004331946104600F0CFF97B68012283F894
:101334003D20002318460837BD4680BD80B483B0E5
:1013440000AF786000BF0C37BD4680BC704700001A
:1013540080B584B000AF786039607B681B68012277
:101364003968184600F06CFC7B681B68154A934288
:1013740004D07B681B68144A934201D1012300E026
:101384000023002B07D07B681B685A6C7B681B68A2
:1013940042F400425A647B681B689B6803F00703AD
:1013A400FB60FB68062B07D07B681B681A687B68A8
:1013B4001B6842F001021A60002318461037BD462C
:1013C40080BD00BF002C01400034014080B584B0D2
:1013D40000AFF860B9607A60FB6893F83C30012B89
:1013E40001D10223B4E0FB68012283F83C20FB68AE
:1013F400022283F83D207B680C2B00F29F8001A21F
:1014040052F823F03D140008411500084115000866
:10141400411500087D140008411500084115000815
:1014240041150008BF1400084115000841150008C3
:1014340041150008FF140008FB681B68B9681846CA
:1014440000F0BCF9FB681B689A69FB681B6842F0F2
:1014540008029A61FB681B689A69FB681B6822F0A2
:1014640004029A61FB681B689969BB681A69FB6886
:101474001B680A439A6162E0FB681B68B9681846F6
:1014840000F00CFAFB681B689A69FB681B6842F45D
:1014940000629A61FB681B689A69FB681B6822F406
:1014A40080629A61FB681B689969BB681B691A02B0
:1014B400FB681B680A439A6141E0FB681B68B968D2
:1014C400184600F05FFAFB681B68DA69FB681B6862
:1014D40042F00802DA61FB681B68DA69FB681B6882
:1014E40022F00402DA61FB681B68D969BB681A69D7
:1014F400FB681B680A43DA6121E0FB681B68B96872
:10150400184600F0B3FAFB681B68DA69FB681B68CD
:1015140042F40062DA61FB681B68DA69FB681B68E5
:1015240022F48062DA61FB681B68D969BB681B69B5
:101534001A02FB681B680A43DA6100E000BFFB681B
:10154400012283F83D20FB68002283F83C2000231D
:1015540018461037BD4680BD80B584B000AF7860B2
:1015640039607B6893F83C30012B01D10223A6E05B
:101574007B68012283F83C207B68022283F83D20AB
:101584007B681B689B68FB60FB6823F07703FB6048
:10159400FB6823F47F43FB607B681B68FA689A60EE
:1015A4003B681B68402B67D0402B0BD8102B73D0A3
:1015B400102B02D8002B6FD078E0202B6CD0302B6E
:1015C4006AD073E0702B0DD0702B04D8502B33D01D
:1015D400602B41D06AE0B3F5805F66D0B3F5005F5D
:1015E40017D063E07B6818683B6899683B685A6861
:1015F4003B68DB6800F005FB7B681B689B68FB604D
:10160400FB6843F07703FB607B681B68FA689A60A9
:101614004CE07B6818683B6899683B685A683B688B
:10162400DB6800F0EEFA7B681B689A687B681B68CD
:1016340042F480429A6039E07B6818683B685968D4
:101644003B68DB681A4600F065FA7B681B6850212A
:10165400184600F0BCFA29E07B6818683B685968B2
:101664003B68DB681A4600F083FA7B681B686021DC
:10167400184600F0ACFA19E07B6818683B685968B2
:101684003B68DB681A4600F045FA7B681B6840211A
:10169400184600F09CFA09E07B681A683B681B68EE
:1016A4001946104600F093FA00E000BF7B6801225F
:1016B40083F83D207B68002283F83C2000231846F1
:1016C4001037BD4680BD000080B485B000AF78609F
:1016D40039607B681B68FB607B68334A934213D094
:1016E4007B68324A93420FD07B68B3F1804F0BD0B2
:1016F4007B682F4A934207D07B682E4A934203D0DB
:101704007B682D4A934208D1FB6823F07003FB6089
:101714003B685B68FA681343FB607B68224A934228
:1017240013D07B68214A93420FD07B68B3F1804F7A
:101734000BD07B681E4A934207D07B681D4A9342B4
:1017440003D07B681C4A934208D1FB6823F440739E
:10175400FB603B68DB68FA681343FB60FB6823F0BB
:1017640080023B685B691343FB607B68FA681A601C
:101774003B689A687B68DA623B681A687B689A629D
:101784007B68094A934203D07B68084A934203D199
:101794003B681A697B681A637B6801225A6100BF3F
:1017A4001437BD4680BC7047002C01400034014012
:1017B4000004004000080040000C004080B487B0E2
:1017C40000AF786039607B681B6A23F001027B6894
:1017D4001A627B681B6A7B617B685B683B617B6820
:1017E4009B69FB60FB6823F07003FB60FB6823F0DC
:1017F4000303FB603B681B68FA681343FB607B6967
:1018040023F002037B613B689B687A6913437B6125
:101814007B68204A934203D07B681F4A93420CD1D1
:101824007B6923F008037B613B68DB687A691343B7
:101834007B617B6923F004037B617B68154A9342D7
:1018440003D07B68144A934211D13B6923F480731B
:101854003B613B6923F400733B613B685B693A6914
:1018640013433B613B689B693A6913433B617B6863
:101874003A695A607B68FA689A613B685A687B687F
:101884005A637B687A691A6200BF1C37BD4680BC04
:10189400704700BF002C01400034014080B487B081
:1018A40000AF786039607B681B6A23F010027B68A4
:1018B4001A627B681B6A7B617B685B683B617B683F
:1018C4009B69FB60FB6823F4E043FB60FB6823F443
:1018D4004073FB603B681B681B02FA681343FB60A0
:1018E4007B6923F020037B613B689B681B017A6959
:1018F40013437B617B68214A934203D07B68204A6F
:1019040093420DD17B6923F080037B613B68DB68E4
:101914001B017A6913437B617B6923F040037B617C
:101924007B68164A934203D07B68154A934213D1CD
:101934003B6923F480633B613B6923F400633B61AF
:101944003B685B699B003A6913433B613B689B6955
:101954009B003A6913433B617B683A695A607B6830
:10196400FA689A613B685A687B689A637B687A690B
:101974001A6200BF1C37BD4680BC7047002C014072
:101984000034014080B487B000AF786039607B6870
:101994001B6A23F480727B681A627B681B6A7B6112
:1019A4007B685B683B617B68DB69FB60FB6823F0F9
:1019B4007003FB60FB6823F00303FB603B681B6858
:1019C400FA681343FB607B6923F400737B613B6813
:1019D4009B681B027A6913437B617B68214A9342AB
:1019E40003D07B68204A93420DD17B6923F40063C2
:1019F4007B613B68DB681B027A6913437B617B690B
:101A040023F480637B617B68164A934203D07B682E
:101A1400154A934213D13B6923F480533B613B69DC
:101A240023F400533B613B685B691B013A69134330
:101A34003B613B689B691B013A6913433B617B68CB
:101A44003A695A607B68FA68DA613B685A687B686D
:101A5400DA637B687A691A6200BF1C37BD4680BCB2
:101A6400704700BF002C01400034014080B487B0AF
:101A740000AF786039607B681B6A23F480527B680E
:101A84001A627B681B6A3B617B685B687B617B686D
:101A9400DB69FB60FB6823F4E043FB60FB6823F431
:101AA4004073FB603B681B681B02FA681343FB60CE
:101AB4003B6923F400533B613B689B681B033A6911
:101AC40013433B617B68114A934203D07B68104AFD
:101AD400934209D17B6923F480437B613B685B6952
:101AE4009B017A6913437B617B687A695A607B68DE
:101AF400FA68DA613B685A687B681A647B683A69F9
:101B04001A6200BF1C37BD4680BC7047002C0140E0
:101B14000034014080B487B000AFF860B9607A60E7
:101B2400FB681B6A7B61FB681B6A23F00102FB688C
:101B34001A62FB689B693B613B6923F0F0033B61DC
:101B44007B681B013A6913433B617B6923F00A03F9
:101B54007B617A69BB6813437B61FB683A699A616C
:101B6400FB687A691A6200BF1C37BD4680BC7047A7
:101B740080B487B000AFF860B9607A60FB681B6A14
:101B840023F01002FB681A62FB689B697B61FB68A7
:101B94001B6A3B617B6923F470437B617B681B0395
:101BA4007A6913437B613B6923F0A0033B61BB6803
:101BB4001B013A6913433B61FB687A699A61FB68CC
:101BC4003A691A6200BF1C37BD4680BC704780B4B6
:101BD40085B000AF786039607B689B68FB60FB6808
:101BE40023F07003FB603A68FB68134343F0070378
:101BF400FB607B68FA689A6000BF1437BD4680BCFE
:101C0400704780B487B000AFF860B9607A603B6019
:101C1400FB689B687B617B6923F47F437B613B6842
:101C24001A027B681A43BB6813437A6913437B61C6
:101C3400FB687A699A6000BF1C37BD4680BC704758
:101C440080B487B000AFF860B9607A60BB6803F015
:101C54001F03012202FA03F37B61FB681A6A7B69A2
:101C6400DB431A40FB681A62FB681A6ABB6803F01C
:101C74001F03796801FA03F31A43FB681A6200BF71
:101C84001C37BD4680BC704780B485B000AF786017
:101C940039607B6893F83C30012B01D1022332E098
:101CA4007B68012283F83C207B68022283F83D2074
:101CB4007B681B685B68FB607B681B689B68BB6018
:101CC400FB6823F07003FB603B681B68FA681343EE
:101CD400FB60BB6823F08003BB603B685B68BA6849
:101CE4001343BB607B681B68FA685A607B681B6897
:101CF400BA689A607B68012283F83D207B680022E1
:101D040083F83C20002318461437BD4680BC704736
:101D140080B485B000AF786039600023FB607B68D5
:101D240093F83C30012B01D102233DE07B68012272
:101D340083F83C20FB6823F0FF023B68DB68134315
:101D4400FB60FB6823F440723B689B681343FB60B1
:101D5400FB6823F480623B685B681343FB60FB68A9
:101D640023F400623B681B681343FB60FB6823F4A5
:101D740080523B681B691343FB60FB6823F40052E9
:101D84003B685B691343FB60FB6823F480423B6858
:101D9400DB691343FB607B681B68FA685A647B68E1
:101DA400002283F83C20002318461437BD4680BC2B
:101DB400704780B582B000AF78607B68002B01D19A
:101DC40001233FE07B6893F83930DBB2002B06D166
:101DD4007B68002283F83820786800F0A5FD7B68D2
:101DE400242283F839207B681B68DA687B681B68C7
:101DF40022F40052DA60786800F05EFA7B681B68AF
:101E04001A697B681B6822F490421A617B681B681C
:101E14005A697B681B6822F02A025A617B681B6836
:101E2400DA687B681B6842F40052DA607B6800223F
:101E3400DA637B68202283F839207B68202283F8C8
:101E44003A20002318460837BD4680BD80B588B0C7
:101E540000AF78607B681B681B68FB617B681B684C
:101E6400DB68BB617B681B685B697B6100233B614A
:101E74000023FB60FB6903F00F033B613B69002B0C
:101E84000DD1FB6903F02003002B08D0BB6903F0DC
:101E94002003002B03D0786800F08DF9CCE03B6977
:101EA400002B00F0AB807B6903F00103002B05D10C
:101EB400BB6903F49073002B00F0A080FB6903F06E
:101EC4000103002B0AD0BB6903F48073002B05D0F7
:101ED4007B68DB6B43F001027B68DA63FB6903F028
:101EE4000403002B0AD07B6903F00103002B05D007
:101EF4007B68DB6B43F002027B68DA63FB6903F007
:101F04000203002B0AD07B6903F00103002B05D0E8
:101F14007B68DB6B43F004027B68DA63FB6903F0E4
:101F24000803002B0AD07B6903F00103002B05D0C2
:101F34007B68DB6B43F008027B68DA637B68DB6BEE
:101F4400002B78D0FB6903F02003002B07D0BB697A
:101F540003F02003002B02D0786800F02CF97B6892
:101F64001B685B6903F04003002B14BF01230023AB
:101F7400DBB2FB607B68DB6B03F00803002B02D150
:101F8400FB68002B31D0786800F077F87B681B6819
:101F94005B6903F04003002B23D07B681B685A69FC
:101FA4007B681B6822F040025A617B685B6B002BE4
:101FB40013D07B685B6B224A5A637B685B6B184661
:101FC400FEF79EFA0346002B16D07B685B6B5B6BB7
:101FD4007A68526B104698470EE0786800F044F82F
:101FE4000AE0786800F040F806E0786800F03CF811
:101FF4007B680022DA631EE000BF1CE0FB6903F08B
:102004008003002B08D0BB6903F08003002B03D0AE
:10201400786800F063F80FE0FB6903F04003002BDD
:102024000AD0BB6903F04003002B05D0786800F0A8
:10203400AAF800BF00E000BF2037BD4680BD00BF46
:10204400B920000880B483B000AF786000BF0C37BB
:10205400BD4680BC704780B483B000AF786000BFD9
:102064000C37BD4680BC704780B483B000AF786045
:1020740000BF0C37BD4680BC704780B483B000AF4E
:1020840078607B681B68DA687B681B6822F490724E
:10209400DA607B681B685A697B681B6822F001025E
:1020A4005A617B68202283F83A2000BF0C37BD4672
:1020B40080BC704780B584B000AF78607B685B6A91
:1020C400FB60FB680022DA85FB680022DA84F8688A
:1020D400FFF7CAFF00BF1037BD4680BD80B485B08E
:1020E40000AF78607B6893F83930DBB2212B44D1A0
:1020F4007B689B68B3F5805F1AD17B681B6AFB60C1
:10210400FB681B881A467B681B68C2F308025A6086
:102114007B681B69002B05D17B681B6A9A1C7B6852
:102124001A620EE07B681B6A5A1C7B681A6208E01C
:102134007B681B6A591C7A6811621A787B681B6871
:102144005A607B68DB8C9BB2013B9BB27A68194670
:10215400D184002B0FD17B681B68DA687B681B680D
:1021640022F08002DA607B681B68DA687B681B688F
:1021740042F04002DA60002300E0022318461437DC
:10218400BD4680BC704780B582B000AF78607B6884
:102194001B68DA687B681B6822F04002DA607B689F
:1021A400202283F839207868FFF74CFF0023184673
:1021B4000837BD4680BD80B584B000AF78607B68C9
:1021C40093F83A30DBB2222B71D17B689B68B3F56C
:1021D400805F23D17B689B6AFB607B681B69002B53
:1021E4000ED17B681B685B689BB2C3F308039AB289
:1021F400FB681A807B689B6A9A1C7B689A6229E058
:102204007B681B685B689BB2DBB29AB2FB681A807E
:102214007B689B6A5A1C7B689A621BE07B681B691B
:10222400002B0AD17B681B6858687B689B6A591C21
:102234007A689162C2B21A700CE07B681B685B68B2
:10224400DAB27B689B6A581C7968886202F07F0264
:10225400D2B21A707B68DB8D9BB2013B9BB27A6869
:102264001946D185002B20D17B681B68DA687B680E
:102274001B6822F02002DA607B681B68DA687B68DE
:102284001B6822F48072DA607B681B685A697B6879
:102294001B6822F001025A617B68202283F83A20ED
:1022A4007868FFF7D8FE002302E0002300E0022351
:1022B40018461037BD4680BD80B584B000AF786045
:1022C4007B681B681B6923F440517B68DA687B6870
:1022D4001B680A431A617B689A687B681B691A4306
:1022E4007B685B691343FB607B681B68DB6823F4D2
:1022F400B05323F00C037A681268F9680B43D36077
:102304007B681B685B6923F440717B689A697B680E
:102314001B680A435A617B681B68524A93424ED138
:10232400FEF784FFB860BA6813469B0013449A0012
:102334001A447B685B689B00B2FBF3F34A4AA2FB36
:1023440003235B091901BA6813469B0013449A00DE
:102354001A447B685B689B00B2FBF3F2424BA3FB1D
:1023640002035B09642000FB03F3D31A1B0132331D
:102374003D4AA2FB03235B0903F0F0031944BA6846
:1023840013469B0013449A001A447B685B689B00C5
:10239400B2FBF3F2344BA3FB02035B09642000FBA2
:1023A40003F3D31A1B0132332F4AA2FB03235B0925
:1023B40003F00F027B681B680A449A604DE0FEF745
:1023C40021FFB860BA6813469B0013449A001A446C
:1023D4007B685B689B00B2FBF3F3234AA2FB0323F5
:1023E4005B091901BA6813469B0013449A001A4406
:1023F4007B685B689B00B2FBF3F21B4BA3FB0203FD
:102404005B09642000FB03F3D31A1B013233164A21
:10241400A2FB03235B0903F0F0031944BA681346D3
:102424009B0013449A001A447B685B689B00B2FBD0
:10243400F3F20D4BA3FB02035B09642000FB03F3DF
:10244400D31A1B013233084AA2FB03235B0903F0AE
:102454000F027B681B680A449A6000BF1037BD46B0
:1024640080BD00BF003801401F85EB5180B500AF2F
:10247400FDF7D6FE00F00EF800F01CF900F050F85D
:1024840000F0EEF800210248FEF762FFFEE700BF0D
:102494002C00002080B590B000AF07F1180328226B
:1024A4000021184600F05CFB3B1D00221A605A60B4
:1024B4009A60DA601A610123BB614FF48033FB61D7
:1024C40000233B620123BB6202237B634FF480330E
:1024D400BB634FF4E013FB6307F118031846FEF7E0
:1024E400BBFA0346002B01D000F080F90F237B6078
:1024F4000223BB600023FB604FF480633B61002335
:102504007B613B1D02211846FEF726FD0346002B86
:1025140001D000F06BF900BF4037BD4680BD00001C
:1025240080B596B000AF07F1480300221A605A60E4
:102534009A60DA6007F1400300221A605A6007F1DA
:10254400240300221A605A609A60DA601A615A61A0
:102554009A613B1D20220021184600F001FB3E4BEE
:102564003E4A1A603C4B47225A603B4B00229A6019
:10257400394B6322DA60384B00221A61364B002251
:102584005A61354B00229A613348FEF781FE0346B7
:10259400002B01D000F02AF94FF48053BB6407F1FB
:1025A400480319462C48FEF7D7FF0346002B01D0F9
:1025B40000F01CF92848FEF796FE0346002B01D0D4
:1025C40000F014F900233B6400237B6407F140030B
:1025D40019462148FFF758FB0346002B01D000F0B1
:1025E40005F960237B623223BB620023FB62002374
:1025F4003B6300237B630023BB630023FB6307F17E
:102604002403002219461448FEF7E0FE0346002B7B
:1026140001D000F0EBF800237B600023BB600023B3
:10262400FB6000233B6100237B614FF40053BB61DB
:1026340000233B623B1D19460748FFF769FB03462D
:10264400002B01D000F0D2F8034800F025F900BFB8
:102654005837BD4680BD00BF2C000020002C01402F
:1026640080B500AF114B124A1A60104B4FF4E1329F
:102674005A600E4B00229A600C4B0022DA600B4B1E
:1026840000221A61094B0C225A61084B00229A61FC
:10269400064B0022DA610548FFF78BFB0346002B4B
:1026A40001D000F0A3F800BF80BD00BF6C00002083
:1026B4000038014080B588B000AF07F11003002254
:1026C4001A605A609A60DA60424B9B69414A43F04F
:1026D400400393613F4B9B6903F04003FB60FB683D
:1026E4003C4B9B693B4A43F004039361394B9B6920
:1026F40003F00403BB60BB68364B9B69354A43F067
:1027040008039361334B9B6903F008037B607B6888
:10271400012220213048FEF765F9012220212F48AB
:10272400FEF760F900224FF480712C48FEF75AF945
:1027340018233B612A4B7B610123BB6107F1100322
:1027440019462548FDF7E4FF20233B6101237B6103
:102754000023BB610223FB6107F1100319461E48E5
:10276400FDF7D6FF01233B611E4B7B610223BB6156
:1027740007F1100319461C48FDF7CAFF4FF4907384
:102784003B6101237B610023BB610223FB6107F1F1
:10279400100319461148FDF7BBFF00220121062052
:1027A400FDF777FE0620FDF790FE002201210920A7
:1027B400FDF76FFE0920FDF788FE002201210A20A3
:1027C400FDF767FE0A20FDF780FE00BF2037BD46F7
:1027D40080BD00BF0010024000180140000C014001
:1027E40000002110000011100008014080B400AF67
:1027F40000BFBD4680BC704780B485B000AF154BA8
:102804009B69144A43F001039361124B9B6903F0E3
:102814000103BB60BB680F4BDB690E4A43F0805376
:10282400D3610C4BDB6903F080537B607B680A4BFC
:102834005B68FB60FB6823F0E063FB60FB6843F0CC
:102844000073FB60044AFB68536000BF1437BD4645
:1028540080BC7047001002400000014080B485B085
:1028640000AF78607B681B68094A93420BD1094B1F
:102874009B69084A43F400639361064B9B6903F424
:102884000063FB60FB6800BF1437BD4680BC704723
:10289400002C01400010024080B588B000AF786081
:1028A40007F10C0300221A605A609A60DA607B68B0
:1028B4001B68194A93422AD1184B9B69174A43F063
:1028C40040039361154B9B6903F04003BB60BB68F5
:1028D4004FF40073FB6002233B610223BB6107F1E9
:1028E4000C0319460E48FDF713FF0E4B5B68FB61A2
:1028F400FB6923F0C003FB61FB6943F0E063FB6108
:10290400FB6943F0C003FB61064AFB69536000BFE7
:102914002037BD4680BD00BF002C0140001002409E
:10292400001801400000014080B588B000AF786015
:1029340007F1100300221A605A609A60DA607B681B
:102944001B68204A934239D11F4B9B691E4A43F4AA
:10295400804393611C4B9B6903F48043FB60FB68D9
:10296400194B9B69184A43F004039361164B9B6906
:1029740003F00403BB60BB684FF400733B610223A4
:102984007B610323FB6107F1100319460F48FDF730
:10299400BFFE4FF480633B6100237B610023BB6176
:1029A40007F1100319460948FDF7B2FE0022002181
:1029B4002520FDF76EFD2520FDF787FD00BF20379C
:1029C400BD4680BD003801400010024000080140AF
:1029D40080B400AF00BFBD4680BC704780B400AF78
:1029E400FEE780B400AFFEE780B400AFFEE780B43A
:1029F40000AFFEE780B400AF00BFBD4680BC7047A7
:102A040080B400AF00BFBD4680BC704780B400AF47
:102A140000BFBD4680BC704780B500AFFDF746FCE3
:102A240000BF80BD80B500AF0120FDF7F3FF00BFFC
:102A340080BD80B500AF0820FDF7ECFF00BF80BD6E
:102A440080B500AF1020FDF7E5FF00BF80BD00009A
:102A540080B500AF0248FFF7F9F900BF80BD00BFA1
:102A64006C00002080B400AF154B1B68144A43F07F
:102A740001031360124B5A681149124B13404B6007
:102A84000F4B1B680E4A23F0847323F480331360C6
:102A94000B4B1B680A4A23F480231360084B5B68C2
:102AA400074A23F4FE035360054B4FF41F029A6058
:102AB400054B4FF000629A6000BFBD4680BC704772
:102AC400001002400000FFF800ED00E0002103E0E8
:102AD4000B4B5B58435004310A480B4B42189A4243
:102AE400F6D30A4A02E0002342F8043B084B9A4218
:102AF400F9D3FFF7B7FF00F00FF8FFF7B7FC704703
:102B0400C02B0008000000200C0000200C00002056
:102B1400AC000020FEE7000070B500260C4D0D4C03
:102B2400641BA410A64209D100F022F800260A4D25
:102B34000A4C641BA410A64205D170BD55F8043B91
:102B440098470136EEE755F8043B98470136F2E71B
:102B5400B82B0008B82B0008B82B0008BC2B0008C1
:102B640003460244934200D1704703F8011BF9E77E
:102B7400F8B500BFF8BC08BC9E467047F8B500BF66
:082B8400F8BC08BC9E46704736
:102B8C0002030405060708090A0B0C0D0E0F1010A2
:102B9C00010200000000000000000000010203041C
:0C2BAC00060708090000000001020304F5
:042BB8000902000806
:042BBC00E501000827
:0C2BC00010000000010000000024F400E0
:0400000508002AD1F4
:00000001FF
