:020000040800F2
:1000000000000120FD330008FD320008093300081C
:100010000F330008153300081B33000800000000F0
:100020000000000000000000000000002133000874
:100030002D33000800000000393300084533000864
:1000400045340008453400084534000845340008AC
:10005000453400084534000845340008453400089C
:1000600045340008513300085F3300084534000868
:10007000453400084534000845340008453400087C
:10008000453400084534000845340008453400086C
:10009000453400084534000845340008453400085C
:1000A000453400084534000845340008453400084C
:1000B0006D33000845340008453400084534000815
:1000C000453400084534000845340008453400082C
:1000D00045340008813300084534000845340008E1
:1000E000453400084534000845340008453400080C
:1000F00045340008453400084534000845340008FC
:1001000045340008453400084534000845340008EB
:1001100045340008453400084534000845340008DB
:1001200045340008453400084534000845340008CB
:1001300000000000000000000000000000000000BF
:1001400000000000000000000000000000000000AF
:10015000000000000000000000000000000000009F
:10016000000000000000000000000000000000008F
:10017000000000000000000000000000000000007F
:10018000000000000000000000000000000000006F
:10019000000000000000000000000000000000005F
:1001A000000000000000000000000000000000004F
:1001B000000000000000000000000000000000003F
:1001C000000000000000000000000000000000002F
:1001D000000000000000000000000000000000001F
:0401E0005FF8E0F1F3
:1001E80010B5054C237833B9044B13B10448AFF369
:1001F80000800123237010BD0C00002000000000C7
:10020800A034000808B5034B1BB103490348AFF3FA
:10021800008008BD0000000010000020A034000885
:1002280081F0004102E000BF83F0004330B54FEA9F
:1002380041044FEA430594EA050F08BF90EA020F0C
:100248001FBF54EA000C55EA020C7FEA645C7FEA9F
:10025800655C00F0E2804FEA5454D4EB5555B8BFC2
:100268006D420CDD2C4480EA020281EA030382EA33
:10027800000083EA010180EA020281EA0303362DC5
:1002880088BF30BD11F0004F4FEA01314FF4801C98
:100298004CEA113102D0404261EB410113F0004FAA
:1002A8004FEA03334CEA133302D0524263EB430361
:1002B80094EA050F00F0A780A4F10104D5F1200EFF
:1002C8000DDB02FA0EFC22FA05F2801841F100015A
:1002D80003FA0EF2801843FA05F359410EE0A5F12E
:1002E80020050EF1200E012A03FA0EFC28BF4CF05F
:1002F800020C43FA05F3C01851EBE37101F0004515
:1003080007D54FF0000EDCF1000C7EEB00006EEB21
:100318000101B1F5801F1BD3B1F5001F0CD34908AB
:100328005FEA30004FEA3C0C04F101044FEA445202
:1003380012F5800F80F09A80BCF1004F08BF5FEA89
:10034800500C50F1000041EB045141EA050130BD69
:100358005FEA4C0C404141EB010111F4801FA4F10C
:100368000104E9D191F0000F04BF01460020B1FA61
:1003780081F308BF2033A3F10B03B3F120020CDA99
:100388000C3208DD02F1140CC2F10C0201FA0CF077
:1003980021FA02F10CE002F11402D8BFC2F1200CDC
:1003A80001FA02F120FA0CFCDCBF41EA0C01904092
:1003B800E41AA2BF01EB0451294330BD6FEA0404DB
:1003C8001F3C1CDA0C340EDC04F11404C4F12002C6
:1003D80020FA04F001FA02F340EA030021FA04F3D8
:1003E80045EA030130BDC4F10C04C4F1200220FA2F
:1003F80002F001FA04F340EA0300294630BD21FA6D
:1004080004F0294630BD94F0000F83F4801306BF32
:1004180081F480110134013D4EE77FEA645C18BF26
:100428007FEA655C29D094EA050F08BF90EA020FBD
:1004380005D054EA000C04BF1946104630BD91EAB5
:10044800030F1EBF0021002030BD5FEA545C05D1B8
:100458004000494128BF41F0004130BD14F58004F7
:100468003CBF01F5801130BD01F0004545F0FE416B
:1004780041F470014FF0000030BD7FEA645C1ABFA0
:10048800194610467FEA655C1CBF0B46024650EAD7
:10049800013406BF52EA033591EA030F41F4002103
:1004A80030BD00BF90F0000F04BF0021704730B589
:1004B8004FF4806404F132044FF000054FF000015E
:1004C80050E700BF90F0000F04BF0021704730B51F
:1004D8004FF4806404F1320410F0004548BF4042F4
:1004E8004FF000013EE700BF42004FEAE2014FEA49
:1004F80031014FEA02701FBF12F07F4393F07F4F24
:1005080081F06051704732F07F4208BF704793F026
:100518007F4F04BF41F40021704730B54FF4607439
:1005280001F0004521F000411CE700BF50EA01023C
:1005380008BF704730B54FF000050AE050EA0102E5
:1005480008BF704730B511F0004502D5404261EB55
:1005580041014FF4806404F132045FEA915C3FF496
:10056800D8AE4FF003025FEADC0C18BF03325FEA33
:10057800DC0C18BF033202EBDC02C2F1200300FAE4
:1005880003FC20FA02F001FA03FE40EA0E0021FA09
:1005980002F11444BDE600BF70B54FF0FF0C4CF4F7
:1005A800E06C1CEA11541DBF1CEA135594EA0C0FA9
:1005B80095EA0C0F00F0DEF82C4481EA030621EAE4
:1005C8004C5123EA4C5350EA013518BF52EA03351F
:1005D80041F4801143F4801338D0A0FB02CE4FF0D1
:1005E8000005E1FB02E506F00042E0FB03E54FF001
:1005F8000006E1FB03569CF0000F18BF4EF0010EF9
:10060800A4F1FF04B6F5007F64F5407404D25FEAF4
:100618004E0E6D4146EB060642EAC62141EA5551A7
:100628004FEAC52040EA5E504FEACE2EB4F1FD0CE9
:1006380088BFBCF5E06F1ED8BEF1004F08BF5FEA67
:10064800500E50F1000041EB045170BD06F0004619
:1006580046EA010140EA020081EA0301B4EB5C04C6
:10066800C2BFD4EB0C0541EA045170BD41F48011BE
:100678004FF0000E013C00F3AB8014F1360FDEBFE3
:10068800002001F0004170BDC4F10004203C35DABF
:100698000C341BDC04F11404C4F1200500FA05F342
:1006A80020FA04F001FA05F240EA020001F00042E3
:1006B80021F0004110EBD37021FA04F642EB060159
:1006C8005EEA430E08BF20EAD37070BDC4F10C0483
:1006D800C4F1200500FA04F320FA05F001FA04F247
:1006E80040EA020001F0004110EBD37041F1000133
:1006F8005EEA430E08BF20EAD37070BDC4F120053E
:1007080000FA05F24EEA020E20FA04F301FA05F2A5
:1007180043EA020321FA04F001F0004121FA04F24D
:1007280020EA020000EBD3705EEA430E08BF20EA1D
:10073800D37070BD94F0000F0FD101F00046400057
:1007480041EB010111F4801F08BF013CF7D041EAD9
:10075800060195F0000F18BF704703F000465200DD
:1007680043EB030313F4801F08BF013DF7D043EAAE
:100778000603704794EA0C0F0CEA135518BF95EA64
:100788000C0F0CD050EA410618BF52EA4306D1D1EB
:1007980081EA030101F000414FF0000070BD50EA0A
:1007A800410606BF1046194652EA430619D094EA94
:1007B8000C0F02D150EA013613D195EA0C0F05D17E
:1007C80052EA03361CBF104619460AD181EA0301D2
:1007D80001F0004141F0FE4141F470014FF000008A
:1007E80070BD41F0FE4141F4780170BD70B54FF025
:1007F800FF0C4CF4E06C1CEA11541DBF1CEA1355A5
:1008080094EA0C0F95EA0C0F00F0A7F8A4EB050486
:1008180081EA030E52EA03354FEA013100F088807D
:100828004FEA03334FF0805545EA131343EA126346
:100838004FEA022245EA111545EA10654FEA0026FB
:100848000EF000419D4208BF964244F1FD0404F5B4
:10085800407402D25B084FEA3202B61A65EB030510
:100868005B084FEA32024FF480104FF4002CB6EBCD
:10087800020E75EB030E22BFB61A754640EA0C004D
:100888005B084FEA3202B6EB020E75EB030E22BF8D
:10089800B61A754640EA5C005B084FEA3202B6EBCE
:1008A800020E75EB030E22BFB61A754640EA9C008D
:1008B8005B084FEA3202B6EB020E75EB030E22BF5D
:1008C800B61A754640EADC0055EA060E18D04FEA1B
:1008D800051545EA16754FEA06164FEAC30343EABB
:1008E80052734FEAC2025FEA1C1CC0D111F4801F88
:1008F8000BD141EA00014FF000004FF0004CB6E781
:1009080011F4801F04BF01430020B4F1FD0C88BF1F
:10091800BCF5E06F3FF6AFAEB5EB030C04BFB6EB2A
:10092800020C5FEA500C50F1000041EB045170BD1D
:100938000EF0004E4EEA113114EB5C04C2BFD4EB4A
:100948000C0541EA045170BD41F480114FF0000ECE
:10095800013C90E645EA060E8DE60CEA135594EA4A
:100968000C0F08BF95EA0C0F3FF43BAF94EA0C0F4D
:100978000AD150EA01347FF434AF95EA0C0F7FF4C2
:1009880025AF104619462CE795EA0C0F06D152EA16
:1009980003353FF4FDAE1046194622E750EA4106FA
:1009A80018BF52EA43067FF4C5AE50EA41047FF40B
:1009B8000DAF52EA43057FF4EBAE12E780B500AF06
:1009C800084B1B68074A43F010031360032000F02C
:1009D80023F9002000F008F802F0C2FB00231846B3
:1009E80080BD00BF0020024080B582B000AF7860B3
:1009F800124B1A68124B1B7819464FF47A73B3FBE3
:100A0800F1F3B2FBF3F3184600F03BF90346002B71
:100A180001D001230EE07B680F2B0AD800227968E9
:100A28004FF0FF3000F003F9064A7B68136000239B
:100A380000E0012318460837BD4680BD08000020A5
:100A4800040000200000002080B400AF054B1B7894
:100A58001A46054B1B681344034A136000BFBD4682
:100A680080BC7047040000202800002080B400AF3C
:100A7800024B1B681846BD4680BC70472800002002
:100A880080B485B000AF78607B6803F00703FB6033
:100A98000C4BDB68BB60BA684FF6FF031340BB60C2
:100AA800FB681A02BB68134343F0BF6343F4003387
:100AB800BB60044ABB68D36000BF1437BD4680BC26
:100AC800704700BF00ED00E080B400AF044BDB6866
:100AD8001B0A03F007031846BD4680BC704700BFD9
:100AE80000ED00E080B483B000AF0346FB7197F9D6
:100AF8000730002B0BDBFB7903F01F02064997F93F
:100B080007305B09012000FA02F241F8232000BFF8
:100B18000C37BD4680BC704700E100E080B483B06C
:100B280000AF03463960FB7197F90730002B0ADBE9
:100B38003B68DAB20C4997F907301201D2B20B447C
:100B480083F800230AE03B68DAB20849FB7903F02E
:100B58000F03043B1201D2B20B441A7600BF0C37C4
:100B6800BD4680BC704700BF00E100E000ED00E03A
:100B780080B489B000AFF860B9607A60FB6803F0B0
:100B88000703FB61FB69C3F10703042B28BF042398
:100B9800BB61FB690433062B02D9FB69033B00E008
:100BA80000237B614FF0FF32BB6902FA03F3DA439B
:100BB800BB681A407B699A404FF0FF317B6901FAA4
:100BC80003F3D9437B680B40134318462437BD46CB
:100BD80080BC704780B582B000AF78607B68013B0D
:100BE800B3F1807F01D301230FE00A4A7B68013B00
:100BF80053600F214FF0FF30FFF790FF054B0022A5
:100C08009A60044B07221A60002318460837BD462D
:100C180080BD00BF10E000E080B582B000AF786012
:100C28007868FFF72DFF00BF0837BD4680BD80B547
:100C380086B000AF0346B9607A60FB7300237B611E
:100C4800FFF742FF78617A68B9687869FFF790FF23
:100C5800024697F90F3011461846FFF75FFF00BFAD
:100C68001837BD4680BD80B582B000AF0346FB7122
:100C780097F907301846FFF735FF00BF0837BD461C
:100C880080BD80B582B000AF78607868FFF7A2FFBA
:100C9800034618460837BD4680BD000080B584B0BD
:100CA80000AF78600023FB737B6893F82130022B38
:100CB80005D07B6804229A630123FB73D6E07B6826
:100CC8001B681A687B681B6822F00E021A607B6832
:100CD8001B681A687B681B6822F001021A607B682F
:100CE8001B681A46644B9A4258D97B681B68634A4A
:100CF80093424FD07B681B68614A934248D07B6817
:100D08001B68604A934240D07B681B685E4A9342E6
:100D180038D07B681B685D4A934230D07B681B687B
:100D28005B4A934228D07B681B68534A934220D081
:100D38007B681B68574A934219D07B681B68564AE0
:100D4800934212D07B681B68544A93420AD07B684E
:100D58001B68534A934202D14FF480531BE04FF46F
:100D6800803318E04FF4807315E0102313E001235B
:100D780011E04FF080730EE04FF480130BE04FF456
:100D8800803308E04FF4805305E04FF4807302E0AD
:100D9800102300E00123434A536057E07B681B6837
:100DA800364A93424FD07B681B68354A934248D0F5
:100DB8007B681B68334A934240D07B681B68324A81
:100DC800934238D07B681B68304A934230D07B68A6
:100DD8001B682F4A934228D07B681B68264A934297
:100DE80020D07B681B682B4A934219D07B681B680C
:100DF800294A934212D07B681B68284A93420AD03A
:100E08007B681B68264A934202D14FF480531BE04B
:100E18004FF4803318E04FF4807315E0102313E08B
:100E2800012311E04FF080730EE04FF480130BE0C4
:100E38004FF4803308E04FF4805305E04FF480739B
:100E480002E0102300E00123174A53607B68012267
:100E580083F821207B68002283F820207B685B6B65
:100E6800002B03D07B685B6B78689847FB7B184640
:100E78001037BD4680BD00BF800002400800024018
:100E88001C0002403000024044000240580002406A
:100E98006C000240080402401C0402403004024076
:100EA80044040240000402400000024080B48BB0B9
:100EB80000AF7860396000237B6200233B6233E136
:100EC80001227B6A02FA03F3FB613B681B68FA693B
:100ED8001340BB61BA69FB699A4240F022813B68C2
:100EE8005B68122B34D0122B0DD8022B2BD0022B7F
:100EF80004D8002B31D0012B1CD048E0032B43D061
:100F0800112B1BD043E08F4A934226D08D4A93423F
:100F180006D88D4A934220D08C4A93421DD036E0A1
:100F28008B4A934219D08B4A934216D08A4A9342ED
:100F380013D02CE03B68DB683B6228E03B68DB6849
:100F480004333B6223E03B68DB6808333B621EE006
:100F58003B68DB680C333B6219E03B689B68002BFD
:100F680002D104233B6212E03B689B68012B05D148
:100F780008233B627B68FA691A6108E008233B6230
:100F88007B68FA695A6102E000233B6200BFBB69D3
:100F9800FF2B01D87B6801E07B6804337B61BB6968
:100FA800FF2B02D87B6A9B0002E07B6A083B9B0010
:100FB8003B617B691A680F213B6901FA03F3DB4344
:100FC8001A40396A3B6901FA03F31A437B691A60CC
:100FD8003B685B6803F08053002B00F0A2805F4BF6
:100FE8009B695E4A43F0010393615C4B9B6903F084
:100FF8000103BB60BB685A4A7B6A9B08023352F8FC
:101008002330FB607B6A03F003039B000F2202FA84
:1010180003F3DB43FA681340FB607B68514A934251
:101028001FD07B68504A934219D07B684F4A93423D
:1010380013D07B684E4A93420DD07B684D4A934249
:1010480007D07B684C4A934201D105230AE0062366
:1010580008E0042306E0032304E0022302E001235E
:1010680000E000237A6A02F0030292009340FA68D3
:101078001343FB603A497B6A9B080233FA6841F8DC
:1010880023203B685B6803F48033002B06D03B4B7E
:101098001A683A49BB6913430B6006E0374B1A6874
:1010A800BB69DB43354913400B603B685B6803F45D
:1010B8000033002B06D0314B5A683049BB691343C3
:1010C8004B6006E02D4B5A68BB69DB432B49134044
:1010D8004B603B685B6803F48013002B06D0274BFA
:1010E8009A682649BB6913438B6006E0234B9A68CC
:1010F800BB69DB43214913408B603B685B6803F4A1
:101108000013002B06D01D4BDA681C49BB6913433A
:10111800CB6006E0194BDA68BB69DB43174913401B
:10112800CB607B6A01337B623B681A687B6A22FA70
:1011380003F3002B7FF4C4AE00BF2C37BD4680BC40
:10114800704700BF000021100000111000001210AD
:101158000000311000003210000022100010024080
:101168000000014000080140000C0140001001404F
:101178000014014000180140001C01400004014017
:1011880080B483B000AF78600B467B8013467B70D9
:101198007B78002B03D07A887B681A6103E07B8810
:1011A8001A047B681A6100BF0C37BD4680BC7047C3
:1011B80080B483B000AF78600B467B807B68DA68C8
:1011C8007B881340002B03D07A887B685A6102E041
:1011D8007A887B681A6100BF0C37BD4680BC7047AF
:1011E80080B582B000AF0346FB80084B5A69FB8884
:1011F8001340002B06D0054AFB885361FB8818462C
:1012080000F006F800BF0837BD4680BD0004014065
:1012180080B483B000AF0346FB8000BF0C37BD46E7
:1012280080BC704780B586B000AF78607B68002BC3
:1012380001D101236CE27B681B6803F00103002BDA
:1012480000F08780924B5B6803F00C03042B0CD0F2
:101258008F4B5B6803F00C03082B12D18C4B5B6837
:1012680003F48033B3F5803F0BD1894B1B6803F43B
:101278000033002B6CD07B685B68002B68D101239E
:1012880046E27B685B68B3F5803F06D1804B1B68FC
:101298007F4A43F4803313602EE07B685B68002B41
:1012A8000CD17B4B1B687A4A23F480331360784B4C
:1012B8001B68774A23F4802313601DE07B685B6812
:1012C800B3F5A02F0CD1724B1B68714A43F48023ED
:1012D80013606F4B1B686E4A43F4803313600BE056
:1012E8006B4B1B686A4A23F480331360684B1B6896
:1012F800674A23F4802313607B685B68002B13D054
:10130800FFF7B4FB386108E0FFF7B0FB02463B6922
:10131800D31A642B01D90323FAE15D4B1B6803F44C
:101328000033002BF0D014E0FFF7A0FB386108E091
:10133800FFF79CFB02463B69D31A642B01D90323B0
:10134800E6E1534B1B6803F40033002BF0D100E0B7
:1013580000BF7B681B6803F00203002B63D04C4B73
:101368005B6803F00C03002B0BD0494B5B6803F060
:101378000C03082B1CD1464B5B6803F48033002B0D
:1013880016D1434B1B6803F00203002B05D07B6882
:101398001B69012B01D00123BAE13D4B1B6823F0E7
:1013A800F8027B685B69DB00394913430B603AE05C
:1013B8007B681B69002B20D0364B01221A60FFF78F
:1013C80055FB386108E0FFF751FB02463B69D31A29
:1013D800022B01D903239BE12D4B1B6803F0020369
:1013E800002BF0D02A4B1B6823F0F8027B685B695E
:1013F800DB00274913430B6015E0264B00221A60D7
:10140800FFF734FB386108E0FFF730FB02463B6921
:10141800D31A022B01D903237AE11D4B1B6803F071
:101428000203002BF0D17B681B6803F00803002B34
:101438003AD07B689B69002B19D0174B01221A60A0
:10144800FFF714FB386108E0FFF710FB02463B6921
:10145800D31A022B01D903235AE10D4B5B6A03F01F
:101468000203002BF0D0012000F0DAFA1CE00A4B4E
:1014780000221A60FFF7FAFA38610FE0FFF7F6FA70
:1014880002463B69D31A022B08D9032340E100BF67
:101498000010024000004242800442429E4B5B6AB8
:1014A80003F00203002BE9D17B681B6803F00403F7
:1014B800002B00F0A6800023FB75974BDB6903F037
:1014C8008053002B0DD1944BDB69934A43F0805332
:1014D800D361914BDB6903F08053BB60BB68012388
:1014E800FB758E4B1B6803F48073002B18D18B4B54
:1014F8001B688A4A43F480731360FFF7B7FA3861B0
:1015080008E0FFF7B3FA02463B69D31A642B01D906
:101518000323FDE0814B1B6803F48073002BF0D09C
:101528007B68DB68012B06D17B4B1B6A7A4A43F048
:10153800010313622DE07B68DB68002B0CD1764B2E
:101548001B6A754A23F001031362734B1B6A724AC4
:1015580023F0040313621CE07B68DB68052B0CD1C5
:101568006D4B1B6A6C4A43F0040313626A4B1B6A97
:10157800694A43F0010313620BE0674B1B6A664A32
:1015880023F001031362644B1B6A634A23F00403CC
:1015980013627B68DB68002B15D0FFF767FA3861A8
:1015A8000AE0FFF763FA02463B69D31A41F2883230
:1015B800934201D90323ABE0574B1B6A03F00203A4
:1015C800002BEED014E0FFF751FA38610AE0FFF77C
:1015D8004DFA02463B69D31A41F28832934201D947
:1015E800032395E04C4B1B6A03F00203002BEED15A
:1015F800FB7D012B05D1484BDB69474A23F080531B
:10160800D3617B68DB69002B00F08180424B5B680B
:1016180003F00C03082B61D07B68DB69022B46D1F1
:101628003F4B00221A60FFF721FA386108E0FFF704
:101638001DFA02463B69D31A022B01D9032367E03E
:10164800354B1B6803F00073002BF0D17B681B6AD5
:10165800B3F5803F08D1304B5B6823F400327B68D8
:101668009B682D4913434B602B4B5B6823F4741222
:101678007B68196A7B685B6A0B43274913434B6095
:10168800274B01221A60FFF7F1F9386108E0FFF7EC
:10169800EDF902463B69D31A022B01D9032337E03F
:1016A8001D4B1B6803F00073002BF0D02FE01C4B80
:1016B80000221A60FFF7DAF9386108E0FFF7D6F977
:1016C80002463B69D31A022B01D9032320E0124BAF
:1016D8001B6803F00073002BF0D118E07B68DB690E
:1016E800012B01D1012313E00B4B5B68FB60FB6806
:1016F80003F480327B681B6A9A4206D1FB6803F4C4
:1017080070127B685B6A9A4201D0012300E00023D3
:1017180018461837BD4680BD0010024000700040D2
:101728006000424280B584B000AF786039607B6861
:10173800002B01D10123D0E06A4B1B6803F007039B
:101748003A689A4210D9674B1B6823F0070265492B
:101758003B6813430B60634B1B6803F007033A684D
:101768009A4201D00123B8E07B681B6803F00203AA
:10177800002B20D07B681B6803F00403002B05D0E6
:10178800594B5B68584A43F4E06353607B681B68B5
:1017980003F00803002B05D0534B5B68524A43F40F
:1017A80060535360504B5B6823F0F0027B689B6882
:1017B8004D4913434B607B681B6803F00103002B02
:1017C80040D07B685B68012B07D1474B1B6803F44B
:1017D8000033002B15D101237FE07B685B68022B67
:1017E80007D1414B1B6803F00073002B09D101237B
:1017F80073E03D4B1B6803F00203002B01D101236A
:101808006BE0394B5B6823F003027B685B68364901
:1018180013434B60FFF72AF9F8600AE0FFF726F94F
:101828000246FB68D31A41F28832934201D9032356
:1018380053E02D4B5B6803F00C027B685B689B00F0
:101848009A42EBD1274B1B6803F007033A689A4288
:1018580010D2244B1B6823F0070222493B6813432C
:101868000B60204B1B6803F007033A689A4201D0CB
:10187800012332E07B681B6803F00403002B08D0C7
:10188800194B5B6823F4E0627B68DB6816491343F5
:101898004B607B681B6803F00803002B09D0124BD0
:1018A8005B6823F460527B681B69DB000E491343B5
:1018B8004B6000F021F801460B4B5B681B0903F0F5
:1018C8000F030A4AD35C21FA03F3094A1360094B50
:1018D8001B681846FFF788F8002318461037BD46DE
:1018E80080BD00BF0020024000100240CC34000838
:1018F800080000200000002090B48AB000AF2A4BF6
:101908003C1D0FCB84E80F00284B1B883B8000232D
:10191800FB610023BB6100237B6200237B61002302
:101928003B62234B5B68FB61FB6903F00C03042BF0
:1019380002D0082B03D02DE01E4B3B622DE0FB6943
:101948009B0C03F00F0307F12802134413F8243CFF
:101958007B61FB6903F48033002B13D0144B5B6865
:101968005B0C03F0010307F12802134413F8283C29
:10197800BB617B690F4A02FB03F2BB69B2FBF3F35D
:101988007B6204E07B690C4A02FB03F37B627B6A9F
:101998003B6202E0074B3B6200BF3B6A18462837B0
:1019A800BD4690BC704700BFB8340008C834000872
:1019B8000010024000127A0000093D0080B400AF18
:1019C800024B1B681846BD4680BC704708000020C3
:1019D80080B500AFFFF7F2FF0146054B5B681B0AB5
:1019E80003F00703034AD35C21FA03F3184680BDCA
:1019F80000100240DC34000880B500AFFFF7DEFFBE
:101A08000146054B5B68DB0A03F00703034AD35C16
:101A180021FA03F3184680BD00100240DC340008A8
:101A280080B485B000AF78600A4B1B680A4AA2FBF5
:101A380003235B0A7A6802FB03F3FB6000BFFB68C1
:101A48005A1EFA60002BF9D100BF1437BD4680BC7E
:101A5800704700BF08000020D34D621080B582B0E7
:101A680000AF78607B68002B01D101231DE07B6803
:101A780093F83D30DBB2002B06D17B68002283F857
:101A88003C20786801F09EFB7B68022283F83D20A9
:101A98007B681A687B6804331946104600F03EFBE1
:101AA8007B68012283F83D20002318460837BD468D
:101AB80080BD80B485B000AF78607B681B68DA6849
:101AC8007B681B6842F00102DA607B681B689B68D0
:101AD80003F00703FB60FB68062B07D07B681B68D5
:101AE8001A687B681B6842F001021A6000231846D6
:101AF8001437BD4680BC704780B582B000AF7860AF
:101B08007B68002B01D101231DE07B6893F83D30F1
:101B1800DBB2002B06D17B68002283F83C20786872
:101B280000F015F87B68022283F83D207B681A686C
:101B38007B6804331946104600F0F0FA7B680122EE
:101B480083F83D20002318460837BD4680BD80B481
:101B580083B000AF786000BF0C37BD4680BC7047CB
:101B680080B584B000AF786039603B680C2B41D8F1
:101B780001A252F823F000BFB51B0008FD1B0008A6
:101B8800FD1B0008FD1B0008C71B0008FD1B000803
:101B9800FD1B0008FD1B0008D91B0008FD1B0008E1
:101BA800FD1B0008FD1B0008EB1B00087B681B6879
:101BB800DA687B681B6842F00202DA601BE07B6827
:101BC8001B68DA687B681B6842F00402DA6012E07E
:101BD8007B681B68DA687B681B6842F00802DA6079
:101BE80009E07B681B68DA687B681B6842F01002B2
:101BF800DA6000E000BF7B681B680122396818467C
:101C080000F0B5FC7B681B689B6803F00703FB606A
:101C1800FB68062B07D07B681B681A687B681B6803
:101C280042F001021A60002318461037BD4680BDF5
:101C380080B582B000AF78607B681B681B6903F0D1
:101C48000203022B22D17B681B68DB6803F00203C6
:101C5800022B1BD17B681B686FF002021A617B683C
:101C680001221A777B681B689B6903F00303002B2A
:101C780003D0786801F0D4F905E0786800F033FA09
:101C8800786800F039FA7B6800221A777B681B684D
:101C98001B6903F00403042B22D17B681B68DB68F3
:101CA80003F00403042B1BD17B681B686FF004024C
:101CB8001A617B6802221A777B681B689B6903F4A8
:101CC8004073002B03D0786801F0AAF905E0786822
:101CD80000F009FA786800F00FFA7B6800221A779A
:101CE8007B681B681B6903F00803082B22D17B68FB
:101CF8001B68DB6803F00803082B1BD17B681B6893
:101D08006FF008021A617B6804221A777B681B68E7
:101D1800DB6903F00303002B03D0786801F080F936
:101D280005E0786800F0DFF9786800F0E5F97B688D
:101D380000221A777B681B681B6903F01003102BBD
:101D480022D17B681B68DB6803F01003102B1BD1C2
:101D58007B681B686FF010021A617B6808221A778B
:101D68007B681B68DB6903F44073002B03D0786839
:101D780001F056F905E0786800F0B5F9786800F0E8
:101D8800BBF97B6800221A777B681B681B6903F024
:101D98000103012B0ED17B681B68DB6803F001038C
:101DA800012B07D17B681B686FF001021A61786804
:101DB80001F0B6F97B681B681B6903F08003802B70
:101DC8000ED17B681B68DB6803F08003802B07D18A
:101DD8007B681B686FF080021A61786800F038FC35
:101DE8007B681B681B6903F04003402B0ED17B689E
:101DF8001B68DB6803F04003402B07D17B681B6836
:101E08006FF040021A61786800F07FF97B681B6800
:101E18001B6903F02003202B0ED17B681B68DB684D
:101E280003F02003202B07D17B681B686FF020028A
:101E38001A61786800F003FC00BF0837BD4680BD12
:101E480080B584B000AFF860B9607A60FB6893F839
:101E58003C30012B01D102238AE0FB68012283F880
:101E68003C20FB68022283F83D207B68002B1BD1B5
:101E7800FB681868BB681968BB685A68BB68DB6888
:101E880000F0C6F9FB681B689A69FB681B6822F0BA
:101E98000C029A61FB681B689969BB689A68FB68C1
:101EA8001B680A439A615AE07B68042B1CD1FB68C3
:101EB8001868BB681968BB685A68BB68DB6800F0BB
:101EC8003BFAFB681B689A69FB681B6822F440624E
:101ED8009A61FB681B689969BB689B681A02FB6872
:101EE8001B680A439A613AE07B68082B1BD1FB68A0
:101EF8001868BB681968BB685A68BB68DB6800F07B
:101F080086FAFB681B68DA69FB681B6822F00C021A
:101F1800DA61FB681B68D969BB689A68FB681B684B
:101F28000A43DA611BE0FB681868BB681968BB687C
:101F38005A68BB68DB6800F0A5FAFB681B68DA69B9
:101F4800FB681B6822F44062DA61FB681B68D96988
:101F5800BB689B681A02FB681B680A43DA61FB6866
:101F6800012283F83D20FB68002283F83C200023EF
:101F780018461037BD4680BD80B584B000AF786084
:101F880039607B6893F83C30012B01D10223A6E02D
:101F98007B68012283F83C207B68022283F83D207D
:101FA8007B681B689B68FB60FB6823F07703FB601A
:101FB800FB6823F47F43FB607B681B68FA689A60C0
:101FC8003B681B68402B67D0402B0BD8102B73D075
:101FD800102B02D8002B6FD078E0202B6CD0302B40
:101FE8006AD073E0702B0DD0702B04D8502B33D0EF
:101FF800602B41D06AE0B3F5805F66D0B3F5005F2F
:1020080017D063E07B6818683B6899683B685A6832
:102018003B68DB6800F08CFA7B681B689B68FB6098
:10202800FB6843F07703FB607B681B68FA689A607B
:102038004CE07B6818683B6899683B685A683B685D
:10204800DB6800F075FA7B681B689A687B681B6818
:1020580042F480429A6039E07B6818683B685968A6
:102068003B68DB681A4600F039F97B681B68502129
:10207800184600F043FA29E07B6818683B685968FD
:102088003B68DB681A4600F093F97B681B6860219F
:10209800184600F033FA19E07B6818683B685968FD
:1020A8003B68DB681A4600F019F97B681B68402119
:1020B800184600F023FA09E07B681A683B681B6839
:1020C8001946104600F01AFA00E000BF7B680122AA
:1020D80083F83D207B68002283F83C2000231846C3
:1020E8001037BD4680BD80B483B000AF786000BFB4
:1020F8000C37BD4680BC704780B483B000AF7860B1
:1021080000BF0C37BD4680BC704780B483B000AFB9
:10211800786000BF0C37BD4680BC704780B485B07E
:1021280000AF786039607B681B68FB607B68334A66
:10213800934213D07B68324A93420FD07B68B3F145
:10214800804F0BD07B682F4A934207D07B682E4A7A
:10215800934203D07B682D4A934208D1FB6823F051
:102168007003FB603B685B68FA681343FB607B683D
:10217800224A934213D07B68214A93420FD07B684E
:10218800B3F1804F0BD07B681E4A934207D07B681F
:102198001D4A934203D07B681C4A934208D1FB68CE
:1021A80023F44073FB603B68DB68FA681343FB6009
:1021B800FB6823F080023B685B691343FB607B6824
:1021C800FA681A603B689A687B68DA623B681A6842
:1021D8007B689A627B68094A934203D07B68084A05
:1021E800934203D13B681A697B681A637B680122B2
:1021F8005A6100BF1437BD4680BC7047002C0140AF
:10220800003401400004004000080040000C004079
:1022180080B487B000AFF860B9607A603B60FB6853
:102228001B6A23F00102FB681A62FB689B697B61E9
:10223800FB681B6A3B61FB68234A934213D0FB6827
:10224800224A93420FD0FB68B3F1804F0BD0FB6852
:102258001F4A934207D0FB681E4A934203D0FB688B
:102268001D4A934201D1012300E00023002B08D02E
:102278007B6923F003037B617A697B6813437B6185
:1022880003E07B6943F001037B617B6923F0F00382
:102298007B613B681B01DBB27A6913437B613B6955
:1022A80023F00A033B61BB6803F00A033A6913434E
:1022B8003B61FB687A699A61FB683A691A6200BFF8
:1022C8001C37BD4680BC7047002C014000340140DB
:1022D8000004004000080040000C004080B487B0B3
:1022E80000AFF860B9607A60FB681B6A7B61FB68C5
:1022F8001B6A23F00102FB681A62FB689B693B6159
:102308003B6923F0F0033B617B681B013A69134387
:102318003B617B6923F00A037B617A69BB681343DD
:102328007B61FB683A699A61FB687A691A6200BF47
:102338001C37BD4680BC704780B487B000AFF860DA
:10234800B9607A603B60FB681B6A23F01002FB6887
:102358001A62FB689B697B61FB681B6A3B617B694E
:1023680023F440737B617B681B027A6913437B61AA
:102378007B6923F470437B613B681B039BB27A69DA
:1023880013437B613B6923F0A0033B61BB681B01DE
:1023980003F0A0033A6913433B61FB687A699A61C9
:1023A800FB683A691A6200BF1C37BD4680BC70479B
:1023B80080B487B000AFF860B9607A60FB681B6AC8
:1023C80023F01002FB681A62FB689B697B61FB685B
:1023D8001B6A3B617B6923F470437B617B681B0349
:1023E8007A6913437B613B6923F0A0033B61BB68B7
:1023F8001B013A6913433B61FB687A699A61FB6880
:102408003A691A6200BF1C37BD4680BC704780B469
:1024180087B000AFF860B9607A603B60FB681B6A00
:1024280023F48072FB681A62FB68DB697B61FB68D6
:102438001B6A3B617B6923F003037B617A697B68D4
:1024480013437B617B6923F0F0037B613B681B01CD
:10245800DBB27A6913437B613B6923F400733B6108
:10246800BB681B0203F400733A6913433B61FB68C2
:102478007A69DA61FB683A691A6200BF1C37BD469F
:1024880080BC704780B487B000AFF860B9607A60EC
:102498003B60FB681B6A23F48052FB681A62FB6886
:1024A800DB697B61FB681B6A3B617B6923F44073D2
:1024B8007B617B681B027A6913437B617B6923F428
:1024C80070437B613B681B039BB27A6913437B6152
:1024D8003B6923F400533B61BB681B0303F40053BF
:1024E8003A6913433B61FB687A69DA61FB683A69C8
:1024F8001A6200BF1C37BD4680BC704780B485B0E7
:1025080000AF786039607B689B68FB60FB6823F0EC
:102518007003FB603A68FB68134343F00703FB60F2
:102528007B68FA689A6000BF1437BD4680BC704764
:1025380080B487B000AFF860B9607A603B60FB6830
:102548009B687B617B6923F47F437B613B681A024C
:102558007B681A43BB6813437A6913437B61FB6842
:102568007A699A6000BF1C37BD4680BC704780B44A
:1025780087B000AFF860B9607A60BB6803F01F03EA
:10258800012202FA03F37B61FB681A6A7B69DB4369
:102598001A40FB681A62FB681A6ABB6803F01F03DB
:1025A800796801FA03F31A43FB681A6200BF1C3703
:1025B800BD4680BC704780B485B000AF7860396094
:1025C8007B6893F83C30012B01D1022332E07B6811
:1025D800012283F83C207B68022283F83D207B6837
:1025E8001B685B68FB607B681B689B68BB60FB685B
:1025F80023F07003FB603B681B68FA681343FB60B9
:10260800BB6823F08003BB603B685B68BA68134310
:10261800BB607B681B68FA685A607B681B68BA688D
:102628009A607B68012283F83D207B68002283F84A
:102638003C20002318461437BD4680BC704780B440
:1026480083B000AF786000BF0C37BD4680BC7047D0
:1026580080B483B000AF786000BF0C37BD4680BC43
:10266800704780B582B000AF78607B68002B01D1DD
:1026780001233FE07B6893F83930DBB2002B06D1A9
:102688007B68002283F83820786800F0DFFD7B68DB
:10269800242283F839207B681B68DA687B681B680A
:1026A80022F40052DA60786800F05EFA7B681B68F2
:1026B8001A697B681B6822F490421A617B681B6860
:1026C8005A697B681B6822F02A025A617B681B687A
:1026D800DA687B681B6842F40052DA607B68002283
:1026E800DA637B68202283F839207B68202283F80C
:1026F8003A20002318460837BD4680BD80B588B00B
:1027080000AF78607B681B681B68FB617B681B688F
:10271800DB68BB617B681B685B697B6100233B618D
:102728000023FB60FB6903F00F033B613B69002B4F
:102738000DD1FB6903F02003002B08D0BB6903F01F
:102748002003002B03D0786800F08DF9CCE03B69BA
:10275800002B00F0AB807B6903F00103002B05D14F
:10276800BB6903F49073002B00F0A080FB6903F0B1
:102778000103002B0AD0BB6903F48073002B05D03A
:102788007B68DB6B43F001027B68DA63FB6903F06B
:102798000403002B0AD07B6903F00103002B05D04A
:1027A8007B68DB6B43F002027B68DA63FB6903F04A
:1027B8000203002B0AD07B6903F00103002B05D02C
:1027C8007B68DB6B43F004027B68DA63FB6903F028
:1027D8000803002B0AD07B6903F00103002B05D006
:1027E8007B68DB6B43F008027B68DA637B68DB6B32
:1027F800002B78D0FB6903F02003002B07D0BB69BE
:1028080003F02003002B02D0786800F02CF97B68D5
:102818001B685B6903F04003002B14BF01230023EE
:10282800DBB2FB607B68DB6B03F00803002B02D193
:10283800FB68002B31D0786800F077F87B681B685C
:102848005B6903F04003002B23D07B681B685A693F
:102858007B681B6822F040025A617B685B6B002B27
:1028680013D07B685B6B224A5A637B685B6B1846A4
:10287800FEF714FA0346002B16D07B685B6B5B6B84
:102888007A68526B104698470EE0786800F044F872
:102898000AE0786800F040F806E0786800F03CF854
:1028A8007B680022DA631EE000BF1CE0FB6903F0CE
:1028B8008003002B08D0BB6903F08003002B03D0F2
:1028C800786800F063F80FE0FB6903F04003002B21
:1028D8000AD0BB6903F04003002B05D0786800F0EC
:1028E800AAF800BF00E000BF2037BD4680BD00BF8A
:1028F8006D29000880B483B000AF786000BF0C3742
:10290800BD4680BC704780B483B000AF786000BF1C
:102918000C37BD4680BC704780B483B000AF786088
:1029280000BF0C37BD4680BC704780B483B000AF91
:1029380078607B681B68DA687B681B6822F4907291
:10294800DA607B681B685A697B681B6822F00102A1
:102958005A617B68202283F83A2000BF0C37BD46B5
:1029680080BC704780B584B000AF78607B685B6AD4
:10297800FB60FB680022DA85FB680022DA84F868CD
:10298800FFF7CAFF00BF1037BD4680BD80B485B0D1
:1029980000AF78607B6893F83930DBB2212B44D1E3
:1029A8007B689B68B3F5805F1AD17B681B6AFB6004
:1029B800FB681B881A467B681B68C2F308025A60CA
:1029C8007B681B69002B05D17B681B6A9A1C7B6896
:1029D8001A620EE07B681B6A5A1C7B681A6208E060
:1029E8007B681B6A591C7A6811621A787B681B68B5
:1029F8005A607B68DB8C9BB2013B9BB27A681946B4
:102A0800D184002B0FD17B681B68DA687B681B6850
:102A180022F08002DA607B681B68DA687B681B68D2
:102A280042F04002DA60002300E00223184614371F
:102A3800BD4680BC704780B582B000AF78607B68C7
:102A48001B68DA687B681B6822F04002DA607B68E2
:102A5800202283F839207868FFF74CFF00231846B6
:102A68000837BD4680BD80B584B000AF78607B680C
:102A780093F83A30DBB2222B71D17B689B68B3F5AF
:102A8800805F23D17B689B6AFB607B681B69002B96
:102A98000ED17B681B685B689BB2C3F308039AB2CC
:102AA800FB681A807B689B6A9A1C7B689A6229E09B
:102AB8007B681B685B689BB2DBB29AB2FB681A80C2
:102AC8007B689B6A5A1C7B689A621BE07B681B695F
:102AD800002B0AD17B681B6858687B689B6A591C65
:102AE8007A689162C2B21A700CE07B681B685B68F6
:102AF800DAB27B689B6A581C7968886202F07F02A8
:102B0800D2B21A707B68DB8D9BB2013B9BB27A68AC
:102B18001946D185002B20D17B681B68DA687B6851
:102B28001B6822F02002DA607B681B68DA687B6821
:102B38001B6822F48072DA607B681B685A697B68BC
:102B48001B6822F001025A617B68202283F83A2030
:102B58007868FFF7D8FE002302E0002300E0022394
:102B680018461037BD4680BD80B584B000AF786088
:102B78007B681B681B6923F440517B68DA687B68B3
:102B88001B680A431A617B689A687B681B691A4349
:102B98007B685B691343FB607B681B68DB6823F415
:102BA800B05323F00C037A681268F9680B43D360BA
:102BB8007B681B685B6923F440717B689A697B6852
:102BC8001B680A435A617B681B68524A93424ED17C
:102BD800FEF712FFB860BA6813469B0013449A00C8
:102BE8001A447B685B689B00B2FBF3F34A4AA2FB7A
:102BF80003235B091901BA6813469B0013449A0022
:102C08001A447B685B689B00B2FBF3F2424BA3FB60
:102C180002035B09642000FB03F3D31A1B01323360
:102C28003D4AA2FB03235B0903F0F0031944BA6889
:102C380013469B0013449A001A447B685B689B0008
:102C4800B2FBF3F2344BA3FB02035B09642000FBE5
:102C580003F3D31A1B0132332F4AA2FB03235B0968
:102C680003F00F027B681B680A449A604DE0FEF788
:102C7800AFFEB860BA6813469B0013449A001A4422
:102C88007B685B689B00B2FBF3F3234AA2FB032338
:102C98005B091901BA6813469B0013449A001A4449
:102CA8007B685B689B00B2FBF3F21B4BA3FB020340
:102CB8005B09642000FB03F3D31A1B013233164A65
:102CC800A2FB03235B0903F0F0031944BA68134617
:102CD8009B0013449A001A447B685B689B00B2FB14
:102CE800F3F20D4BA3FB02035B09642000FB03F323
:102CF800D31A1B013233084AA2FB03235B0903F0F2
:102D08000F027B681B680A449A6000BF1037BD46F3
:102D180080BD00BF003801401F85EB5180B500AF72
:102D2800FDF74CFE00F016F800F0F4F800F058F843
:102D380000F0C6F800210648FEF712FF044B1B6896
:102D48006FF001021A610248FEF7B3FEFEE700BF0A
:102D58002C00002080B590B000AF07F1180328229E
:102D68000021184600F090FB3B1D00221A605A60B3
:102D78009A60DA601A610123BB614FF48033FB610A
:102D880000233B620123BB6202237B634FF4803341
:102D9800BB634FF4E013FB6307F118031846FEF713
:102DA80041FA0346002B01D000F0D4F90F237B60D1
:102DB8000223BB600023FB604FF480633B61002368
:102DC8007B613B1D02211846FEF7ACFC0346002B35
:102DD80001D000F0BFF900BF4037BD4680BD0000FC
:102DE80080B58AB000AF07F1180300221A605A6054
:102DF8009A60DA6007F1100300221A605A603B46B5
:102E080000221A605A609A60DA602C4B4FF08042B8
:102E18001A602A4B48F69F425A60284B00229A6053
:102E2800264B44F61F62DA60244B00221A61234BBA
:102E380000229A612148FEF711FE0346002B01D0BB
:102E480000F088F94FF48053BB6107F11803194665
:102E58001A48FFF791F80346002B01D000F07AF9E1
:102E68001648FEF749FE0346002B01D000F072F920
:102E780000233B6100237B6107F1100319460F48CB
:102E8800FFF799FB0346002B01D000F063F90023FC
:102E98003B6001237B600023BB600F23FB603B4644
:102EA800002219460548FEF7CBFF0346002B01D048
:102EB80000F050F900BF2837BD4680BD2C00002027
:102EC80080B500AF114B124A1A60104B4FF4E13233
:102ED8005A600E4B00229A600C4B0022DA600B4BB2
:102EE80000221A61094B0C225A61084B00229A6190
:102EF800064B0022DA610548FFF7B3FB0346002BB7
:102F080001D000F027F900BF80BD00BF6C00002091
:102F18000038014080B588B000AF07F110030022E7
:102F28001A605A609A60DA60384B9B69374A43F0F6
:102F380040039361354B9B6903F04003FB60FB68DA
:102F4800324B9B69314A43F0040393612F4B9B69D1
:102F580003F00403BB60BB682C4B9B692B4A43F00E
:102F680008039361294B9B6903F008037B607B6826
:102F7800012220212648FEF703F9012220212548B5
:102F8800FEF7FEF800224FF480712248FEF7F8F8A9
:102F980018233B61204B7B610123BB6107F11003C0
:102FA80019461B48FDF782FF20233B6101237B6103
:102FB8000023BB610223FB6107F110031946144883
:102FC800FDF774FF4FF490733B6101237B6100238D
:102FD800BB610223FB6107F1100319460D48FDF799
:102FE80065FF002201210920FDF721FE0920FDF7D8
:102FF8003AFE002201210A20FDF719FE0A20FDF7FA
:1030080032FE00BF2037BD4680BD00BF0010024021
:1030180000180140000C01400000211000000000D1
:10302800B0B584B000AF78607B681B68B3F1804F9F
:1030380063D1374B1B78002B1DD17B681B6800229E
:103048005A62344B1B681A6A324B1B6822F00A0218
:103058001A62304B1B681A6A2E4B1B6842F0020238
:103068001A622B4B01221A702B4B00221A602B4B31
:1030780000221A6041E07B681B685B6A264A13607D
:10308800254B1B681846FDF70DFA1FA3D3E900234B
:10309800FDF782FA03460C4625461C461F4B1A6864
:1030A80013469B0013445B001846FDF7FBF90246E4
:1030B8000B4620462946FDF7B9F803460C46C7E9F2
:1030C80002347B681B685B6A134A1360114B1B68E8
:1030D8001A6A104B1B6822F00A021A620D4B1A6812
:1030E8000C4B1B68126A1A62094B00221A700A4BB1
:1030F80000221A60094B00221A6000BF1037BD4633
:10310800B0BD00BFAFF30080FCA9F1D24D62403FD3
:10311800AC0000202C000020B4000020B0000020EB
:1031280080B582B000AF78607B681B68B3F1804FD0
:1031380008D120210548FEF73BF8054B1B680133F1
:10314800034A136000BF0837BD4680BD000C01402C
:10315800B000002080B400AF00BFBD4680BC7047FF
:1031680080B485B000AF154B9B69144A43F0010346
:103178009361124B9B6903F00103BB60BB680F4B63
:10318800DB690E4A43F08053D3610C4BDB6903F0D3
:1031980080537B607B680A4B5B68FB60FB6823F0AD
:1031A800E063FB60FB6843F00073FB60044AFB6864
:1031B800536000BF1437BD4680BC70470010024002
:1031C8000000014080B588B000AF786007F11003B7
:1031D80000221A605A609A60DA607B681B68B3F153
:1031E800804F2BD1174BDB69164A43F00103D3619B
:1031F800144BDB6903F00103FB60FB68114B9B690F
:10320800104A43F0040393610E4B9B6903F00403D7
:10321800BB60BB6801233B6100237B610223BB6168
:1032280007F1100319460848FDF740FE0022002167
:103238001C20FDF7FCFC1C20FDF715FD00BF203706
:10324800BD4680BD001002400008014080B588B02E
:1032580000AF786007F1100300221A605A609A6084
:10326800DA607B681B68204A934239D11F4B9B69FF
:103278001E4A43F4804393611C4B9B6903F48043CB
:10328800FB60FB68194B9B69184A43F00403936180
:10329800164B9B6903F00403BB60BB684FF40073D3
:1032A8003B6102237B610323FB6107F1100319468D
:1032B8000F48FDF7FBFD4FF480633B6100237B6102
:1032C8000023BB6107F1100319460948FDF7EEFD1D
:1032D800002200212520FDF7AAFC2520FDF7C3FCCC
:1032E80000BF2037BD4680BD0038014000100240B5
:1032F8000008014080B400AF00BFBD4680BC7047E5
:1033080080B400AFFEE780B400AFFEE780B400AF42
:10331800FEE780B400AFFEE780B400AF00BFBD4653
:1033280080BC704780B400AF00BFBD4680BC70470A
:1033380080B400AF00BFBD4680BC704780B500AF09
:10334800FDF782FB00BF80BD80B500AF0820FDF708
:1033580047FF00BF80BD80B500AF1020FDF740FFDC
:1033680000BF80BD80B500AF0248FEF761FC00BF1A
:1033780080BD00BF2C00002080B500AF0248FFF7D9
:10338800BDF900BF80BD00BF6C00002080B400AF55
:10339800154B1B68144A43F001031360124B5A681B
:1033A8001149124B13404B600F4B1B680E4A23F018
:1033B800847323F4803313600B4B1B680A4A23F48D
:1033C80080231360084B5B68074A23F4FE035360AD
:1033D800054B4FF41F029A60054B4FF000629A604C
:1033E80000BFBD4680BC7047001002400000FFF8D7
:1033F80000ED00E0002103E00B4B5B584350043123
:103408000A480B4B42189A42F6D30A4A02E00023B4
:1034180042F8043B084B9A42F9D3FFF7B7FF00F094
:103428000FF8FFF77BFC7047EC3400080000002021
:103438000C0000200C000020B8000020FEE700006F
:1034480070B500260C4D0D4C641BA410A64209D182
:1034580000F022F800260A4D0A4C641BA410A6426C
:1034680005D170BD55F8043B98470136EEE755F88D
:10347800043B98470136F2E7E4340008E4340008D6
:10348800E4340008E834000803460244934200D1BB
:10349800704703F8011BF9E7F8B500BFF8BC08BC92
:1034A8009E467047F8B500BFF8BC08BC9E467047FA
:1034B80002030405060708090A0B0C0D0E0F10106D
:1034C80001020000000000000000000001020304E7
:0C34D800060708090000000001020304C0
:0434E4000D020008CD
:0434E800E9010008EE
:0C34EC0010000000010000000024F400AB
:04000005080033FDBF
:00000001FF
